{
	"EventOrganization/Event_organization.sol": {
		"eventOrganization": {
			"abi": [
				{
					"inputs": [
						{
							"internalType": "uint256",
							"name": "",
							"type": "uint256"
						}
					],
					"name": "Events",
					"outputs": [
						{
							"internalType": "address",
							"name": "organizer",
							"type": "address"
						},
						{
							"internalType": "string",
							"name": "name",
							"type": "string"
						},
						{
							"internalType": "uint256",
							"name": "date",
							"type": "uint256"
						},
						{
							"internalType": "uint256",
							"name": "price",
							"type": "uint256"
						},
						{
							"internalType": "uint256",
							"name": "totalTickets",
							"type": "uint256"
						},
						{
							"internalType": "uint256",
							"name": "remainTickets",
							"type": "uint256"
						}
					],
					"stateMutability": "view",
					"type": "function"
				},
				{
					"inputs": [
						{
							"internalType": "address",
							"name": "",
							"type": "address"
						},
						{
							"internalType": "uint256",
							"name": "",
							"type": "uint256"
						}
					],
					"name": "Tickets",
					"outputs": [
						{
							"internalType": "uint256",
							"name": "",
							"type": "uint256"
						}
					],
					"stateMutability": "view",
					"type": "function"
				},
				{
					"inputs": [
						{
							"internalType": "uint256",
							"name": "id",
							"type": "uint256"
						},
						{
							"internalType": "uint256",
							"name": "quantity",
							"type": "uint256"
						}
					],
					"name": "buyTickets",
					"outputs": [],
					"stateMutability": "payable",
					"type": "function"
				},
				{
					"inputs": [
						{
							"internalType": "string",
							"name": "name",
							"type": "string"
						},
						{
							"internalType": "uint256",
							"name": "date",
							"type": "uint256"
						},
						{
							"internalType": "uint256",
							"name": "price",
							"type": "uint256"
						},
						{
							"internalType": "uint256",
							"name": "totalTickets",
							"type": "uint256"
						}
					],
					"name": "eventCreation",
					"outputs": [],
					"stateMutability": "nonpayable",
					"type": "function"
				},
				{
					"inputs": [
						{
							"internalType": "uint256",
							"name": "id",
							"type": "uint256"
						},
						{
							"internalType": "uint256",
							"name": "quantity",
							"type": "uint256"
						},
						{
							"internalType": "address",
							"name": "to",
							"type": "address"
						}
					],
					"name": "transferTicket",
					"outputs": [],
					"stateMutability": "nonpayable",
					"type": "function"
				}
			],
			"devdoc": {
				"kind": "dev",
				"methods": {},
				"version": 1
			},
			"evm": {
				"assembly": "    /* \"EventOrganization/Event_organization.sol\":71:1583  contract eventOrganization... */\n  mstore(0x40, 0x80)\n  callvalue\n  dup1\n  iszero\n  tag_1\n  jumpi\n  0x00\n  dup1\n  revert\ntag_1:\n  pop\n  dataSize(sub_0)\n  dup1\n  dataOffset(sub_0)\n  0x00\n  codecopy\n  0x00\n  return\nstop\n\nsub_0: assembly {\n        /* \"EventOrganization/Event_organization.sol\":71:1583  contract eventOrganization... */\n      mstore(0x40, 0x80)\n      jumpi(tag_1, lt(calldatasize, 0x04))\n      shr(0xe0, calldataload(0x00))\n      dup1\n      0x0bb57dfd\n      eq\n      tag_2\n      jumpi\n      dup1\n      0x3856fa43\n      eq\n      tag_3\n      jumpi\n      dup1\n      0x8627df46\n      eq\n      tag_4\n      jumpi\n      dup1\n      0xbd53316e\n      eq\n      tag_5\n      jumpi\n      dup1\n      0xf086a09b\n      eq\n      tag_6\n      jumpi\n    tag_1:\n      0x00\n      dup1\n      revert\n        /* \"EventOrganization/Event_organization.sol\":287:323  mapping(uint => Event) public Events */\n    tag_2:\n      callvalue\n      dup1\n      iszero\n      tag_7\n      jumpi\n      0x00\n      dup1\n      revert\n    tag_7:\n      pop\n      tag_8\n      0x04\n      dup1\n      calldatasize\n      sub\n      dup2\n      add\n      swap1\n      tag_9\n      swap2\n      swap1\n      tag_10\n      jump\t// in\n    tag_9:\n      tag_11\n      jump\t// in\n    tag_8:\n      mload(0x40)\n      tag_12\n      swap7\n      swap6\n      swap5\n      swap4\n      swap3\n      swap2\n      swap1\n      tag_13\n      jump\t// in\n    tag_12:\n      mload(0x40)\n      dup1\n      swap2\n      sub\n      swap1\n      return\n        /* \"EventOrganization/Event_organization.sol\":330:384  mapping (address=>mapping(uint =>uint)) public Tickets */\n    tag_3:\n      callvalue\n      dup1\n      iszero\n      tag_14\n      jumpi\n      0x00\n      dup1\n      revert\n    tag_14:\n      pop\n      tag_15\n      0x04\n      dup1\n      calldatasize\n      sub\n      dup2\n      add\n      swap1\n      tag_16\n      swap2\n      swap1\n      tag_17\n      jump\t// in\n    tag_16:\n      tag_18\n      jump\t// in\n    tag_15:\n      mload(0x40)\n      tag_19\n      swap2\n      swap1\n      tag_20\n      jump\t// in\n    tag_19:\n      mload(0x40)\n      dup1\n      swap2\n      sub\n      swap1\n      return\n        /* \"EventOrganization/Event_organization.sol\":769:1217  function buyTickets(uint id,uint quantity) payable  external ... */\n    tag_4:\n      tag_21\n      0x04\n      dup1\n      calldatasize\n      sub\n      dup2\n      add\n      swap1\n      tag_22\n      swap2\n      swap1\n      tag_23\n      jump\t// in\n    tag_22:\n      tag_24\n      jump\t// in\n    tag_21:\n      stop\n        /* \"EventOrganization/Event_organization.sol\":411:761  function eventCreation(string memory name,uint date,uint price,uint totalTickets) external  ... */\n    tag_5:\n      callvalue\n      dup1\n      iszero\n      tag_25\n      jumpi\n      0x00\n      dup1\n      revert\n    tag_25:\n      pop\n      tag_26\n      0x04\n      dup1\n      calldatasize\n      sub\n      dup2\n      add\n      swap1\n      tag_27\n      swap2\n      swap1\n      tag_28\n      jump\t// in\n    tag_27:\n      tag_29\n      jump\t// in\n    tag_26:\n      stop\n        /* \"EventOrganization/Event_organization.sol\":1223:1578  function transferTicket(uint id ,uint quantity,address to) external ... */\n    tag_6:\n      callvalue\n      dup1\n      iszero\n      tag_30\n      jumpi\n      0x00\n      dup1\n      revert\n    tag_30:\n      pop\n      tag_31\n      0x04\n      dup1\n      calldatasize\n      sub\n      dup2\n      add\n      swap1\n      tag_32\n      swap2\n      swap1\n      tag_33\n      jump\t// in\n    tag_32:\n      tag_34\n      jump\t// in\n    tag_31:\n      stop\n        /* \"EventOrganization/Event_organization.sol\":287:323  mapping(uint => Event) public Events */\n    tag_11:\n      mstore(0x20, 0x00)\n      dup1\n      0x00\n      mstore\n      keccak256(0x00, 0x40)\n      0x00\n      swap2\n      pop\n      swap1\n      pop\n      dup1\n      0x00\n      add\n      0x00\n      swap1\n      sload\n      swap1\n      0x0100\n      exp\n      swap1\n      div\n      0xffffffffffffffffffffffffffffffffffffffff\n      and\n      swap1\n      dup1\n      0x01\n      add\n      dup1\n      sload\n      tag_35\n      swap1\n      tag_36\n      jump\t// in\n    tag_35:\n      dup1\n      0x1f\n      add\n      0x20\n      dup1\n      swap2\n      div\n      mul\n      0x20\n      add\n      mload(0x40)\n      swap1\n      dup2\n      add\n      0x40\n      mstore\n      dup1\n      swap3\n      swap2\n      swap1\n      dup2\n      dup2\n      mstore\n      0x20\n      add\n      dup3\n      dup1\n      sload\n      tag_37\n      swap1\n      tag_36\n      jump\t// in\n    tag_37:\n      dup1\n      iszero\n      tag_38\n      jumpi\n      dup1\n      0x1f\n      lt\n      tag_39\n      jumpi\n      0x0100\n      dup1\n      dup4\n      sload\n      div\n      mul\n      dup4\n      mstore\n      swap2\n      0x20\n      add\n      swap2\n      jump(tag_38)\n    tag_39:\n      dup3\n      add\n      swap2\n      swap1\n      0x00\n      mstore\n      keccak256(0x00, 0x20)\n      swap1\n    tag_40:\n      dup2\n      sload\n      dup2\n      mstore\n      swap1\n      0x01\n      add\n      swap1\n      0x20\n      add\n      dup1\n      dup4\n      gt\n      tag_40\n      jumpi\n      dup3\n      swap1\n      sub\n      0x1f\n      and\n      dup3\n      add\n      swap2\n    tag_38:\n      pop\n      pop\n      pop\n      pop\n      pop\n      swap1\n      dup1\n      0x02\n      add\n      sload\n      swap1\n      dup1\n      0x03\n      add\n      sload\n      swap1\n      dup1\n      0x04\n      add\n      sload\n      swap1\n      dup1\n      0x05\n      add\n      sload\n      swap1\n      pop\n      dup7\n      jump\t// out\n        /* \"EventOrganization/Event_organization.sol\":330:384  mapping (address=>mapping(uint =>uint)) public Tickets */\n    tag_18:\n      mstore(0x20, 0x01)\n      dup2\n      0x00\n      mstore\n      mstore(0x20, keccak256(0x00, 0x40))\n      dup1\n      0x00\n      mstore\n      keccak256(0x00, 0x40)\n      0x00\n      swap2\n      pop\n      swap2\n      pop\n      pop\n      sload\n      dup2\n      jump\t// out\n        /* \"EventOrganization/Event_organization.sol\":769:1217  function buyTickets(uint id,uint quantity) payable  external ... */\n    tag_24:\n        /* \"EventOrganization/Event_organization.sol\":872:873  0 */\n      0x00\n        /* \"EventOrganization/Event_organization.sol\":855:861  Events */\n      dup1\n        /* \"EventOrganization/Event_organization.sol\":855:865  Events[id] */\n      0x00\n        /* \"EventOrganization/Event_organization.sol\":862:864  id */\n      dup5\n        /* \"EventOrganization/Event_organization.sol\":855:865  Events[id] */\n      dup2\n      mstore\n      0x20\n      add\n      swap1\n      dup2\n      mstore\n      0x20\n      add\n      0x00\n      keccak256\n        /* \"EventOrganization/Event_organization.sol\":855:870  Events[id].date */\n      0x02\n      add\n      sload\n        /* \"EventOrganization/Event_organization.sol\":855:873  Events[id].date!=0 */\n      sub\n        /* \"EventOrganization/Event_organization.sol\":847:897  require(Events[id].date!=0,\"event does Not Exist\") */\n      tag_42\n      jumpi\n      mload(0x40)\n      0x08c379a000000000000000000000000000000000000000000000000000000000\n      dup2\n      mstore\n      0x04\n      add\n      tag_43\n      swap1\n      tag_44\n      jump\t// in\n    tag_43:\n      mload(0x40)\n      dup1\n      swap2\n      sub\n      swap1\n      revert\n    tag_42:\n        /* \"EventOrganization/Event_organization.sol\":932:947  block.timestamp */\n      timestamp\n        /* \"EventOrganization/Event_organization.sol\":916:922  Events */\n      0x00\n        /* \"EventOrganization/Event_organization.sol\":916:926  Events[id] */\n      dup1\n        /* \"EventOrganization/Event_organization.sol\":923:925  id */\n      dup5\n        /* \"EventOrganization/Event_organization.sol\":916:926  Events[id] */\n      dup2\n      mstore\n      0x20\n      add\n      swap1\n      dup2\n      mstore\n      0x20\n      add\n      0x00\n      keccak256\n        /* \"EventOrganization/Event_organization.sol\":916:931  Events[id].date */\n      0x02\n      add\n      sload\n        /* \"EventOrganization/Event_organization.sol\":916:947  Events[id].date>block.timestamp */\n      gt\n        /* \"EventOrganization/Event_organization.sol\":908:972  require(Events[id].date>block.timestamp,\"event already occured\") */\n      tag_45\n      jumpi\n      mload(0x40)\n      0x08c379a000000000000000000000000000000000000000000000000000000000\n      dup2\n      mstore\n      0x04\n      add\n      tag_46\n      swap1\n      tag_47\n      jump\t// in\n    tag_46:\n      mload(0x40)\n      dup1\n      swap2\n      sub\n      swap1\n      revert\n    tag_45:\n        /* \"EventOrganization/Event_organization.sol\":1019:1027  quantity */\n      dup1\n        /* \"EventOrganization/Event_organization.sol\":1002:1008  Events */\n      0x00\n        /* \"EventOrganization/Event_organization.sol\":1002:1012  Events[id] */\n      dup1\n        /* \"EventOrganization/Event_organization.sol\":1009:1011  id */\n      dup5\n        /* \"EventOrganization/Event_organization.sol\":1002:1012  Events[id] */\n      dup2\n      mstore\n      0x20\n      add\n      swap1\n      dup2\n      mstore\n      0x20\n      add\n      0x00\n      keccak256\n        /* \"EventOrganization/Event_organization.sol\":1002:1018  Events[id].price */\n      0x03\n      add\n      sload\n        /* \"EventOrganization/Event_organization.sol\":1002:1027  Events[id].price*quantity */\n      tag_48\n      swap2\n      swap1\n      tag_49\n      jump\t// in\n    tag_48:\n        /* \"EventOrganization/Event_organization.sol\":991:1000  msg.value */\n      callvalue\n        /* \"EventOrganization/Event_organization.sol\":991:1027  msg.value==Events[id].price*quantity */\n      eq\n        /* \"EventOrganization/Event_organization.sol\":983:1050  require(msg.value==Events[id].price*quantity,\"Ether is not enough\") */\n      tag_50\n      jumpi\n      mload(0x40)\n      0x08c379a000000000000000000000000000000000000000000000000000000000\n      dup2\n      mstore\n      0x04\n      add\n      tag_51\n      swap1\n      tag_52\n      jump\t// in\n    tag_51:\n      mload(0x40)\n      dup1\n      swap2\n      sub\n      swap1\n      revert\n    tag_50:\n        /* \"EventOrganization/Event_organization.sol\":1095:1103  quantity */\n      dup1\n        /* \"EventOrganization/Event_organization.sol\":1069:1075  Events */\n      0x00\n        /* \"EventOrganization/Event_organization.sol\":1069:1079  Events[id] */\n      dup1\n        /* \"EventOrganization/Event_organization.sol\":1076:1078  id */\n      dup5\n        /* \"EventOrganization/Event_organization.sol\":1069:1079  Events[id] */\n      dup2\n      mstore\n      0x20\n      add\n      swap1\n      dup2\n      mstore\n      0x20\n      add\n      0x00\n      keccak256\n        /* \"EventOrganization/Event_organization.sol\":1069:1093  Events[id].remainTickets */\n      0x05\n      add\n      sload\n        /* \"EventOrganization/Event_organization.sol\":1069:1103  Events[id].remainTickets>=quantity */\n      lt\n      iszero\n        /* \"EventOrganization/Event_organization.sol\":1061:1104  require(Events[id].remainTickets>=quantity) */\n      tag_53\n      jumpi\n      0x00\n      dup1\n      revert\n    tag_53:\n        /* \"EventOrganization/Event_organization.sol\":1149:1157  quantity */\n      dup1\n        /* \"EventOrganization/Event_organization.sol\":1123:1129  Events */\n      0x00\n        /* \"EventOrganization/Event_organization.sol\":1123:1133  Events[id] */\n      dup1\n        /* \"EventOrganization/Event_organization.sol\":1130:1132  id */\n      dup5\n        /* \"EventOrganization/Event_organization.sol\":1123:1133  Events[id] */\n      dup2\n      mstore\n      0x20\n      add\n      swap1\n      dup2\n      mstore\n      0x20\n      add\n      0x00\n      keccak256\n        /* \"EventOrganization/Event_organization.sol\":1123:1147  Events[id].remainTickets */\n      0x05\n      add\n      0x00\n        /* \"EventOrganization/Event_organization.sol\":1123:1157  Events[id].remainTickets-=quantity */\n      dup3\n      dup3\n      sload\n      tag_54\n      swap2\n      swap1\n      tag_55\n      jump\t// in\n    tag_54:\n      swap3\n      pop\n      pop\n      dup2\n      swap1\n      sstore\n      pop\n        /* \"EventOrganization/Event_organization.sol\":1201:1209  quantity */\n      dup1\n        /* \"EventOrganization/Event_organization.sol\":1176:1183  Tickets */\n      0x01\n        /* \"EventOrganization/Event_organization.sol\":1176:1195  Tickets[msg.sender] */\n      0x00\n        /* \"EventOrganization/Event_organization.sol\":1184:1194  msg.sender */\n      caller\n        /* \"EventOrganization/Event_organization.sol\":1176:1195  Tickets[msg.sender] */\n      0xffffffffffffffffffffffffffffffffffffffff\n      and\n      0xffffffffffffffffffffffffffffffffffffffff\n      and\n      dup2\n      mstore\n      0x20\n      add\n      swap1\n      dup2\n      mstore\n      0x20\n      add\n      0x00\n      keccak256\n        /* \"EventOrganization/Event_organization.sol\":1176:1199  Tickets[msg.sender][id] */\n      0x00\n        /* \"EventOrganization/Event_organization.sol\":1196:1198  id */\n      dup5\n        /* \"EventOrganization/Event_organization.sol\":1176:1199  Tickets[msg.sender][id] */\n      dup2\n      mstore\n      0x20\n      add\n      swap1\n      dup2\n      mstore\n      0x20\n      add\n      0x00\n      keccak256\n      0x00\n        /* \"EventOrganization/Event_organization.sol\":1176:1209  Tickets[msg.sender][id]+=quantity */\n      dup3\n      dup3\n      sload\n      tag_56\n      swap2\n      swap1\n      tag_57\n      jump\t// in\n    tag_56:\n      swap3\n      pop\n      pop\n      dup2\n      swap1\n      sstore\n      pop\n        /* \"EventOrganization/Event_organization.sol\":769:1217  function buyTickets(uint id,uint quantity) payable  external ... */\n      pop\n      pop\n      jump\t// out\n        /* \"EventOrganization/Event_organization.sol\":411:761  function eventCreation(string memory name,uint date,uint price,uint totalTickets) external  ... */\n    tag_29:\n        /* \"EventOrganization/Event_organization.sol\":533:548  block.timestamp */\n      timestamp\n        /* \"EventOrganization/Event_organization.sol\":528:532  date */\n      dup4\n        /* \"EventOrganization/Event_organization.sol\":528:548  date>block.timestamp */\n      gt\n        /* \"EventOrganization/Event_organization.sol\":520:575  require(date>block.timestamp,\"create event for future\") */\n      tag_59\n      jumpi\n      mload(0x40)\n      0x08c379a000000000000000000000000000000000000000000000000000000000\n      dup2\n      mstore\n      0x04\n      add\n      tag_60\n      swap1\n      tag_61\n      jump\t// in\n    tag_60:\n      mload(0x40)\n      dup1\n      swap2\n      sub\n      swap1\n      revert\n    tag_59:\n        /* \"EventOrganization/Event_organization.sol\":608:609  2 */\n      0x02\n        /* \"EventOrganization/Event_organization.sol\":594:606  totalTickets */\n      dup2\n        /* \"EventOrganization/Event_organization.sol\":594:609  totalTickets>=2 */\n      lt\n      iszero\n        /* \"EventOrganization/Event_organization.sol\":586:649  require(totalTickets>=2,\"create event for more than 2 peoples\") */\n      tag_62\n      jumpi\n      mload(0x40)\n      0x08c379a000000000000000000000000000000000000000000000000000000000\n      dup2\n      mstore\n      0x04\n      add\n      tag_63\n      swap1\n      tag_64\n      jump\t// in\n    tag_63:\n      mload(0x40)\n      dup1\n      swap2\n      sub\n      swap1\n      revert\n    tag_62:\n        /* \"EventOrganization/Event_organization.sol\":675:734  Event(msg.sender,name,date,price,totalTickets,totalTickets) */\n      mload(0x40)\n      dup1\n      0xc0\n      add\n      0x40\n      mstore\n      dup1\n        /* \"EventOrganization/Event_organization.sol\":681:691  msg.sender */\n      caller\n        /* \"EventOrganization/Event_organization.sol\":675:734  Event(msg.sender,name,date,price,totalTickets,totalTickets) */\n      0xffffffffffffffffffffffffffffffffffffffff\n      and\n      dup2\n      mstore\n      0x20\n      add\n        /* \"EventOrganization/Event_organization.sol\":692:696  name */\n      dup6\n        /* \"EventOrganization/Event_organization.sol\":675:734  Event(msg.sender,name,date,price,totalTickets,totalTickets) */\n      dup2\n      mstore\n      0x20\n      add\n        /* \"EventOrganization/Event_organization.sol\":697:701  date */\n      dup5\n        /* \"EventOrganization/Event_organization.sol\":675:734  Event(msg.sender,name,date,price,totalTickets,totalTickets) */\n      dup2\n      mstore\n      0x20\n      add\n        /* \"EventOrganization/Event_organization.sol\":702:707  price */\n      dup4\n        /* \"EventOrganization/Event_organization.sol\":675:734  Event(msg.sender,name,date,price,totalTickets,totalTickets) */\n      dup2\n      mstore\n      0x20\n      add\n        /* \"EventOrganization/Event_organization.sol\":708:720  totalTickets */\n      dup3\n        /* \"EventOrganization/Event_organization.sol\":675:734  Event(msg.sender,name,date,price,totalTickets,totalTickets) */\n      dup2\n      mstore\n      0x20\n      add\n        /* \"EventOrganization/Event_organization.sol\":721:733  totalTickets */\n      dup3\n        /* \"EventOrganization/Event_organization.sol\":675:734  Event(msg.sender,name,date,price,totalTickets,totalTickets) */\n      dup2\n      mstore\n      pop\n        /* \"EventOrganization/Event_organization.sol\":660:666  Events */\n      0x00\n        /* \"EventOrganization/Event_organization.sol\":660:674  Events[nextId] */\n      dup1\n        /* \"EventOrganization/Event_organization.sol\":667:673  nextId */\n      sload(0x02)\n        /* \"EventOrganization/Event_organization.sol\":660:674  Events[nextId] */\n      dup2\n      mstore\n      0x20\n      add\n      swap1\n      dup2\n      mstore\n      0x20\n      add\n      0x00\n      keccak256\n        /* \"EventOrganization/Event_organization.sol\":660:734  Events[nextId]=Event(msg.sender,name,date,price,totalTickets,totalTickets) */\n      0x00\n      dup3\n      add\n      mload\n      dup2\n      0x00\n      add\n      exp(0x0100, 0x00)\n      dup2\n      sload\n      dup2\n      0xffffffffffffffffffffffffffffffffffffffff\n      mul\n      not\n      and\n      swap1\n      dup4\n      0xffffffffffffffffffffffffffffffffffffffff\n      and\n      mul\n      or\n      swap1\n      sstore\n      pop\n      0x20\n      dup3\n      add\n      mload\n      dup2\n      0x01\n      add\n      swap1\n      dup2\n      tag_65\n      swap2\n      swap1\n      tag_66\n      jump\t// in\n    tag_65:\n      pop\n      0x40\n      dup3\n      add\n      mload\n      dup2\n      0x02\n      add\n      sstore\n      0x60\n      dup3\n      add\n      mload\n      dup2\n      0x03\n      add\n      sstore\n      0x80\n      dup3\n      add\n      mload\n      dup2\n      0x04\n      add\n      sstore\n      0xa0\n      dup3\n      add\n      mload\n      dup2\n      0x05\n      add\n      sstore\n      swap1\n      pop\n      pop\n        /* \"EventOrganization/Event_organization.sol\":745:751  nextId */\n      0x02\n      0x00\n        /* \"EventOrganization/Event_organization.sol\":745:753  nextId++ */\n      dup2\n      sload\n      dup1\n      swap3\n      swap2\n      swap1\n      tag_67\n      swap1\n      tag_68\n      jump\t// in\n    tag_67:\n      swap2\n      swap1\n      pop\n      sstore\n      pop\n        /* \"EventOrganization/Event_organization.sol\":411:761  function eventCreation(string memory name,uint date,uint price,uint totalTickets) external  ... */\n      pop\n      pop\n      pop\n      pop\n      jump\t// out\n        /* \"EventOrganization/Event_organization.sol\":1223:1578  function transferTicket(uint id ,uint quantity,address to) external ... */\n    tag_34:\n        /* \"EventOrganization/Event_organization.sol\":1333:1334  0 */\n      0x00\n        /* \"EventOrganization/Event_organization.sol\":1316:1322  Events */\n      dup1\n        /* \"EventOrganization/Event_organization.sol\":1316:1326  Events[id] */\n      0x00\n        /* \"EventOrganization/Event_organization.sol\":1323:1325  id */\n      dup6\n        /* \"EventOrganization/Event_organization.sol\":1316:1326  Events[id] */\n      dup2\n      mstore\n      0x20\n      add\n      swap1\n      dup2\n      mstore\n      0x20\n      add\n      0x00\n      keccak256\n        /* \"EventOrganization/Event_organization.sol\":1316:1331  Events[id].date */\n      0x02\n      add\n      sload\n        /* \"EventOrganization/Event_organization.sol\":1316:1334  Events[id].date!=0 */\n      sub\n        /* \"EventOrganization/Event_organization.sol\":1308:1358  require(Events[id].date!=0,\"event does Not Exist\") */\n      tag_70\n      jumpi\n      mload(0x40)\n      0x08c379a000000000000000000000000000000000000000000000000000000000\n      dup2\n      mstore\n      0x04\n      add\n      tag_71\n      swap1\n      tag_44\n      jump\t// in\n    tag_71:\n      mload(0x40)\n      dup1\n      swap2\n      sub\n      swap1\n      revert\n    tag_70:\n        /* \"EventOrganization/Event_organization.sol\":1393:1408  block.timestamp */\n      timestamp\n        /* \"EventOrganization/Event_organization.sol\":1377:1383  Events */\n      0x00\n        /* \"EventOrganization/Event_organization.sol\":1377:1387  Events[id] */\n      dup1\n        /* \"EventOrganization/Event_organization.sol\":1384:1386  id */\n      dup6\n        /* \"EventOrganization/Event_organization.sol\":1377:1387  Events[id] */\n      dup2\n      mstore\n      0x20\n      add\n      swap1\n      dup2\n      mstore\n      0x20\n      add\n      0x00\n      keccak256\n        /* \"EventOrganization/Event_organization.sol\":1377:1392  Events[id].date */\n      0x02\n      add\n      sload\n        /* \"EventOrganization/Event_organization.sol\":1377:1408  Events[id].date>block.timestamp */\n      gt\n        /* \"EventOrganization/Event_organization.sol\":1369:1433  require(Events[id].date>block.timestamp,\"event already occured\") */\n      tag_72\n      jumpi\n      mload(0x40)\n      0x08c379a000000000000000000000000000000000000000000000000000000000\n      dup2\n      mstore\n      0x04\n      add\n      tag_73\n      swap1\n      tag_47\n      jump\t// in\n    tag_73:\n      mload(0x40)\n      dup1\n      swap2\n      sub\n      swap1\n      revert\n    tag_72:\n        /* \"EventOrganization/Event_organization.sol\":1477:1485  quantity */\n      dup2\n        /* \"EventOrganization/Event_organization.sol\":1452:1459  Tickets */\n      0x01\n        /* \"EventOrganization/Event_organization.sol\":1452:1471  Tickets[msg.sender] */\n      0x00\n        /* \"EventOrganization/Event_organization.sol\":1460:1470  msg.sender */\n      caller\n        /* \"EventOrganization/Event_organization.sol\":1452:1471  Tickets[msg.sender] */\n      0xffffffffffffffffffffffffffffffffffffffff\n      and\n      0xffffffffffffffffffffffffffffffffffffffff\n      and\n      dup2\n      mstore\n      0x20\n      add\n      swap1\n      dup2\n      mstore\n      0x20\n      add\n      0x00\n      keccak256\n        /* \"EventOrganization/Event_organization.sol\":1452:1475  Tickets[msg.sender][id] */\n      0x00\n        /* \"EventOrganization/Event_organization.sol\":1472:1474  id */\n      dup6\n        /* \"EventOrganization/Event_organization.sol\":1452:1475  Tickets[msg.sender][id] */\n      dup2\n      mstore\n      0x20\n      add\n      swap1\n      dup2\n      mstore\n      0x20\n      add\n      0x00\n      keccak256\n      sload\n        /* \"EventOrganization/Event_organization.sol\":1452:1485  Tickets[msg.sender][id]>=quantity */\n      lt\n      iszero\n        /* \"EventOrganization/Event_organization.sol\":1444:1486  require(Tickets[msg.sender][id]>=quantity) */\n      tag_74\n      jumpi\n      0x00\n      dup1\n      revert\n    tag_74:\n        /* \"EventOrganization/Event_organization.sol\":1522:1530  quantity */\n      dup2\n        /* \"EventOrganization/Event_organization.sol\":1497:1504  Tickets */\n      0x01\n        /* \"EventOrganization/Event_organization.sol\":1497:1516  Tickets[msg.sender] */\n      0x00\n        /* \"EventOrganization/Event_organization.sol\":1505:1515  msg.sender */\n      caller\n        /* \"EventOrganization/Event_organization.sol\":1497:1516  Tickets[msg.sender] */\n      0xffffffffffffffffffffffffffffffffffffffff\n      and\n      0xffffffffffffffffffffffffffffffffffffffff\n      and\n      dup2\n      mstore\n      0x20\n      add\n      swap1\n      dup2\n      mstore\n      0x20\n      add\n      0x00\n      keccak256\n        /* \"EventOrganization/Event_organization.sol\":1497:1520  Tickets[msg.sender][id] */\n      0x00\n        /* \"EventOrganization/Event_organization.sol\":1517:1519  id */\n      dup6\n        /* \"EventOrganization/Event_organization.sol\":1497:1520  Tickets[msg.sender][id] */\n      dup2\n      mstore\n      0x20\n      add\n      swap1\n      dup2\n      mstore\n      0x20\n      add\n      0x00\n      keccak256\n      0x00\n        /* \"EventOrganization/Event_organization.sol\":1497:1530  Tickets[msg.sender][id]-=quantity */\n      dup3\n      dup3\n      sload\n      tag_75\n      swap2\n      swap1\n      tag_55\n      jump\t// in\n    tag_75:\n      swap3\n      pop\n      pop\n      dup2\n      swap1\n      sstore\n      pop\n        /* \"EventOrganization/Event_organization.sol\":1558:1566  quantity */\n      dup2\n        /* \"EventOrganization/Event_organization.sol\":1541:1548  Tickets */\n      0x01\n        /* \"EventOrganization/Event_organization.sol\":1541:1552  Tickets[to] */\n      0x00\n        /* \"EventOrganization/Event_organization.sol\":1549:1551  to */\n      dup4\n        /* \"EventOrganization/Event_organization.sol\":1541:1552  Tickets[to] */\n      0xffffffffffffffffffffffffffffffffffffffff\n      and\n      0xffffffffffffffffffffffffffffffffffffffff\n      and\n      dup2\n      mstore\n      0x20\n      add\n      swap1\n      dup2\n      mstore\n      0x20\n      add\n      0x00\n      keccak256\n        /* \"EventOrganization/Event_organization.sol\":1541:1556  Tickets[to][id] */\n      0x00\n        /* \"EventOrganization/Event_organization.sol\":1553:1555  id */\n      dup6\n        /* \"EventOrganization/Event_organization.sol\":1541:1556  Tickets[to][id] */\n      dup2\n      mstore\n      0x20\n      add\n      swap1\n      dup2\n      mstore\n      0x20\n      add\n      0x00\n      keccak256\n      0x00\n        /* \"EventOrganization/Event_organization.sol\":1541:1566  Tickets[to][id]+=quantity */\n      dup3\n      dup3\n      sload\n      tag_76\n      swap2\n      swap1\n      tag_57\n      jump\t// in\n    tag_76:\n      swap3\n      pop\n      pop\n      dup2\n      swap1\n      sstore\n      pop\n        /* \"EventOrganization/Event_organization.sol\":1223:1578  function transferTicket(uint id ,uint quantity,address to) external ... */\n      pop\n      pop\n      pop\n      jump\t// out\n        /* \"#utility.yul\":7:82   */\n    tag_77:\n        /* \"#utility.yul\":40:46   */\n      0x00\n        /* \"#utility.yul\":73:75   */\n      0x40\n        /* \"#utility.yul\":67:76   */\n      mload\n        /* \"#utility.yul\":57:76   */\n      swap1\n      pop\n        /* \"#utility.yul\":7:82   */\n      swap1\n      jump\t// out\n        /* \"#utility.yul\":88:205   */\n    tag_78:\n        /* \"#utility.yul\":197:198   */\n      0x00\n        /* \"#utility.yul\":194:195   */\n      dup1\n        /* \"#utility.yul\":187:199   */\n      revert\n        /* \"#utility.yul\":211:328   */\n    tag_79:\n        /* \"#utility.yul\":320:321   */\n      0x00\n        /* \"#utility.yul\":317:318   */\n      dup1\n        /* \"#utility.yul\":310:322   */\n      revert\n        /* \"#utility.yul\":334:411   */\n    tag_80:\n        /* \"#utility.yul\":371:378   */\n      0x00\n        /* \"#utility.yul\":400:405   */\n      dup2\n        /* \"#utility.yul\":389:405   */\n      swap1\n      pop\n        /* \"#utility.yul\":334:411   */\n      swap2\n      swap1\n      pop\n      jump\t// out\n        /* \"#utility.yul\":417:539   */\n    tag_81:\n        /* \"#utility.yul\":490:514   */\n      tag_136\n        /* \"#utility.yul\":508:513   */\n      dup2\n        /* \"#utility.yul\":490:514   */\n      tag_80\n      jump\t// in\n    tag_136:\n        /* \"#utility.yul\":483:488   */\n      dup2\n        /* \"#utility.yul\":480:515   */\n      eq\n        /* \"#utility.yul\":470:533   */\n      tag_137\n      jumpi\n        /* \"#utility.yul\":529:530   */\n      0x00\n        /* \"#utility.yul\":526:527   */\n      dup1\n        /* \"#utility.yul\":519:531   */\n      revert\n        /* \"#utility.yul\":470:533   */\n    tag_137:\n        /* \"#utility.yul\":417:539   */\n      pop\n      jump\t// out\n        /* \"#utility.yul\":545:684   */\n    tag_82:\n        /* \"#utility.yul\":591:596   */\n      0x00\n        /* \"#utility.yul\":629:635   */\n      dup2\n        /* \"#utility.yul\":616:636   */\n      calldataload\n        /* \"#utility.yul\":607:636   */\n      swap1\n      pop\n        /* \"#utility.yul\":645:678   */\n      tag_139\n        /* \"#utility.yul\":672:677   */\n      dup2\n        /* \"#utility.yul\":645:678   */\n      tag_81\n      jump\t// in\n    tag_139:\n        /* \"#utility.yul\":545:684   */\n      swap3\n      swap2\n      pop\n      pop\n      jump\t// out\n        /* \"#utility.yul\":690:1019   */\n    tag_10:\n        /* \"#utility.yul\":749:755   */\n      0x00\n        /* \"#utility.yul\":798:800   */\n      0x20\n        /* \"#utility.yul\":786:795   */\n      dup3\n        /* \"#utility.yul\":777:784   */\n      dup5\n        /* \"#utility.yul\":773:796   */\n      sub\n        /* \"#utility.yul\":769:801   */\n      slt\n        /* \"#utility.yul\":766:885   */\n      iszero\n      tag_141\n      jumpi\n        /* \"#utility.yul\":804:883   */\n      tag_142\n      tag_78\n      jump\t// in\n    tag_142:\n        /* \"#utility.yul\":766:885   */\n    tag_141:\n        /* \"#utility.yul\":924:925   */\n      0x00\n        /* \"#utility.yul\":949:1002   */\n      tag_143\n        /* \"#utility.yul\":994:1001   */\n      dup5\n        /* \"#utility.yul\":985:991   */\n      dup3\n        /* \"#utility.yul\":974:983   */\n      dup6\n        /* \"#utility.yul\":970:992   */\n      add\n        /* \"#utility.yul\":949:1002   */\n      tag_82\n      jump\t// in\n    tag_143:\n        /* \"#utility.yul\":939:1002   */\n      swap2\n      pop\n        /* \"#utility.yul\":895:1012   */\n      pop\n        /* \"#utility.yul\":690:1019   */\n      swap3\n      swap2\n      pop\n      pop\n      jump\t// out\n        /* \"#utility.yul\":1025:1151   */\n    tag_83:\n        /* \"#utility.yul\":1062:1069   */\n      0x00\n        /* \"#utility.yul\":1102:1144   */\n      0xffffffffffffffffffffffffffffffffffffffff\n        /* \"#utility.yul\":1095:1100   */\n      dup3\n        /* \"#utility.yul\":1091:1145   */\n      and\n        /* \"#utility.yul\":1080:1145   */\n      swap1\n      pop\n        /* \"#utility.yul\":1025:1151   */\n      swap2\n      swap1\n      pop\n      jump\t// out\n        /* \"#utility.yul\":1157:1253   */\n    tag_84:\n        /* \"#utility.yul\":1194:1201   */\n      0x00\n        /* \"#utility.yul\":1223:1247   */\n      tag_146\n        /* \"#utility.yul\":1241:1246   */\n      dup3\n        /* \"#utility.yul\":1223:1247   */\n      tag_83\n      jump\t// in\n    tag_146:\n        /* \"#utility.yul\":1212:1247   */\n      swap1\n      pop\n        /* \"#utility.yul\":1157:1253   */\n      swap2\n      swap1\n      pop\n      jump\t// out\n        /* \"#utility.yul\":1259:1377   */\n    tag_85:\n        /* \"#utility.yul\":1346:1370   */\n      tag_148\n        /* \"#utility.yul\":1364:1369   */\n      dup2\n        /* \"#utility.yul\":1346:1370   */\n      tag_84\n      jump\t// in\n    tag_148:\n        /* \"#utility.yul\":1341:1344   */\n      dup3\n        /* \"#utility.yul\":1334:1371   */\n      mstore\n        /* \"#utility.yul\":1259:1377   */\n      pop\n      pop\n      jump\t// out\n        /* \"#utility.yul\":1383:1482   */\n    tag_86:\n        /* \"#utility.yul\":1435:1441   */\n      0x00\n        /* \"#utility.yul\":1469:1474   */\n      dup2\n        /* \"#utility.yul\":1463:1475   */\n      mload\n        /* \"#utility.yul\":1453:1475   */\n      swap1\n      pop\n        /* \"#utility.yul\":1383:1482   */\n      swap2\n      swap1\n      pop\n      jump\t// out\n        /* \"#utility.yul\":1488:1657   */\n    tag_87:\n        /* \"#utility.yul\":1572:1583   */\n      0x00\n        /* \"#utility.yul\":1606:1612   */\n      dup3\n        /* \"#utility.yul\":1601:1604   */\n      dup3\n        /* \"#utility.yul\":1594:1613   */\n      mstore\n        /* \"#utility.yul\":1646:1650   */\n      0x20\n        /* \"#utility.yul\":1641:1644   */\n      dup3\n        /* \"#utility.yul\":1637:1651   */\n      add\n        /* \"#utility.yul\":1622:1651   */\n      swap1\n      pop\n        /* \"#utility.yul\":1488:1657   */\n      swap3\n      swap2\n      pop\n      pop\n      jump\t// out\n        /* \"#utility.yul\":1663:1802   */\n    tag_88:\n        /* \"#utility.yul\":1752:1758   */\n      dup3\n        /* \"#utility.yul\":1747:1750   */\n      dup2\n        /* \"#utility.yul\":1742:1745   */\n      dup4\n        /* \"#utility.yul\":1736:1759   */\n      mcopy\n        /* \"#utility.yul\":1793:1794   */\n      0x00\n        /* \"#utility.yul\":1784:1790   */\n      dup4\n        /* \"#utility.yul\":1779:1782   */\n      dup4\n        /* \"#utility.yul\":1775:1791   */\n      add\n        /* \"#utility.yul\":1768:1795   */\n      mstore\n        /* \"#utility.yul\":1663:1802   */\n      pop\n      pop\n      pop\n      jump\t// out\n        /* \"#utility.yul\":1808:1910   */\n    tag_89:\n        /* \"#utility.yul\":1849:1855   */\n      0x00\n        /* \"#utility.yul\":1900:1902   */\n      0x1f\n        /* \"#utility.yul\":1896:1903   */\n      not\n        /* \"#utility.yul\":1891:1893   */\n      0x1f\n        /* \"#utility.yul\":1884:1889   */\n      dup4\n        /* \"#utility.yul\":1880:1894   */\n      add\n        /* \"#utility.yul\":1876:1904   */\n      and\n        /* \"#utility.yul\":1866:1904   */\n      swap1\n      pop\n        /* \"#utility.yul\":1808:1910   */\n      swap2\n      swap1\n      pop\n      jump\t// out\n        /* \"#utility.yul\":1916:2293   */\n    tag_90:\n        /* \"#utility.yul\":2004:2007   */\n      0x00\n        /* \"#utility.yul\":2032:2071   */\n      tag_154\n        /* \"#utility.yul\":2065:2070   */\n      dup3\n        /* \"#utility.yul\":2032:2071   */\n      tag_86\n      jump\t// in\n    tag_154:\n        /* \"#utility.yul\":2087:2158   */\n      tag_155\n        /* \"#utility.yul\":2151:2157   */\n      dup2\n        /* \"#utility.yul\":2146:2149   */\n      dup6\n        /* \"#utility.yul\":2087:2158   */\n      tag_87\n      jump\t// in\n    tag_155:\n        /* \"#utility.yul\":2080:2158   */\n      swap4\n      pop\n        /* \"#utility.yul\":2167:2232   */\n      tag_156\n        /* \"#utility.yul\":2225:2231   */\n      dup2\n        /* \"#utility.yul\":2220:2223   */\n      dup6\n        /* \"#utility.yul\":2213:2217   */\n      0x20\n        /* \"#utility.yul\":2206:2211   */\n      dup7\n        /* \"#utility.yul\":2202:2218   */\n      add\n        /* \"#utility.yul\":2167:2232   */\n      tag_88\n      jump\t// in\n    tag_156:\n        /* \"#utility.yul\":2257:2286   */\n      tag_157\n        /* \"#utility.yul\":2279:2285   */\n      dup2\n        /* \"#utility.yul\":2257:2286   */\n      tag_89\n      jump\t// in\n    tag_157:\n        /* \"#utility.yul\":2252:2255   */\n      dup5\n        /* \"#utility.yul\":2248:2287   */\n      add\n        /* \"#utility.yul\":2241:2287   */\n      swap2\n      pop\n        /* \"#utility.yul\":2008:2293   */\n      pop\n        /* \"#utility.yul\":1916:2293   */\n      swap3\n      swap2\n      pop\n      pop\n      jump\t// out\n        /* \"#utility.yul\":2299:2417   */\n    tag_91:\n        /* \"#utility.yul\":2386:2410   */\n      tag_159\n        /* \"#utility.yul\":2404:2409   */\n      dup2\n        /* \"#utility.yul\":2386:2410   */\n      tag_80\n      jump\t// in\n    tag_159:\n        /* \"#utility.yul\":2381:2384   */\n      dup3\n        /* \"#utility.yul\":2374:2411   */\n      mstore\n        /* \"#utility.yul\":2299:2417   */\n      pop\n      pop\n      jump\t// out\n        /* \"#utility.yul\":2423:3289   */\n    tag_13:\n        /* \"#utility.yul\":2676:2680   */\n      0x00\n        /* \"#utility.yul\":2714:2717   */\n      0xc0\n        /* \"#utility.yul\":2703:2712   */\n      dup3\n        /* \"#utility.yul\":2699:2718   */\n      add\n        /* \"#utility.yul\":2691:2718   */\n      swap1\n      pop\n        /* \"#utility.yul\":2728:2799   */\n      tag_161\n        /* \"#utility.yul\":2796:2797   */\n      0x00\n        /* \"#utility.yul\":2785:2794   */\n      dup4\n        /* \"#utility.yul\":2781:2798   */\n      add\n        /* \"#utility.yul\":2772:2778   */\n      dup10\n        /* \"#utility.yul\":2728:2799   */\n      tag_85\n      jump\t// in\n    tag_161:\n        /* \"#utility.yul\":2846:2855   */\n      dup2\n        /* \"#utility.yul\":2840:2844   */\n      dup2\n        /* \"#utility.yul\":2836:2856   */\n      sub\n        /* \"#utility.yul\":2831:2833   */\n      0x20\n        /* \"#utility.yul\":2820:2829   */\n      dup4\n        /* \"#utility.yul\":2816:2834   */\n      add\n        /* \"#utility.yul\":2809:2857   */\n      mstore\n        /* \"#utility.yul\":2874:2952   */\n      tag_162\n        /* \"#utility.yul\":2947:2951   */\n      dup2\n        /* \"#utility.yul\":2938:2944   */\n      dup9\n        /* \"#utility.yul\":2874:2952   */\n      tag_90\n      jump\t// in\n    tag_162:\n        /* \"#utility.yul\":2866:2952   */\n      swap1\n      pop\n        /* \"#utility.yul\":2962:3034   */\n      tag_163\n        /* \"#utility.yul\":3030:3032   */\n      0x40\n        /* \"#utility.yul\":3019:3028   */\n      dup4\n        /* \"#utility.yul\":3015:3033   */\n      add\n        /* \"#utility.yul\":3006:3012   */\n      dup8\n        /* \"#utility.yul\":2962:3034   */\n      tag_91\n      jump\t// in\n    tag_163:\n        /* \"#utility.yul\":3044:3116   */\n      tag_164\n        /* \"#utility.yul\":3112:3114   */\n      0x60\n        /* \"#utility.yul\":3101:3110   */\n      dup4\n        /* \"#utility.yul\":3097:3115   */\n      add\n        /* \"#utility.yul\":3088:3094   */\n      dup7\n        /* \"#utility.yul\":3044:3116   */\n      tag_91\n      jump\t// in\n    tag_164:\n        /* \"#utility.yul\":3126:3199   */\n      tag_165\n        /* \"#utility.yul\":3194:3197   */\n      0x80\n        /* \"#utility.yul\":3183:3192   */\n      dup4\n        /* \"#utility.yul\":3179:3198   */\n      add\n        /* \"#utility.yul\":3170:3176   */\n      dup6\n        /* \"#utility.yul\":3126:3199   */\n      tag_91\n      jump\t// in\n    tag_165:\n        /* \"#utility.yul\":3209:3282   */\n      tag_166\n        /* \"#utility.yul\":3277:3280   */\n      0xa0\n        /* \"#utility.yul\":3266:3275   */\n      dup4\n        /* \"#utility.yul\":3262:3281   */\n      add\n        /* \"#utility.yul\":3253:3259   */\n      dup5\n        /* \"#utility.yul\":3209:3282   */\n      tag_91\n      jump\t// in\n    tag_166:\n        /* \"#utility.yul\":2423:3289   */\n      swap8\n      swap7\n      pop\n      pop\n      pop\n      pop\n      pop\n      pop\n      pop\n      jump\t// out\n        /* \"#utility.yul\":3295:3417   */\n    tag_92:\n        /* \"#utility.yul\":3368:3392   */\n      tag_168\n        /* \"#utility.yul\":3386:3391   */\n      dup2\n        /* \"#utility.yul\":3368:3392   */\n      tag_84\n      jump\t// in\n    tag_168:\n        /* \"#utility.yul\":3361:3366   */\n      dup2\n        /* \"#utility.yul\":3358:3393   */\n      eq\n        /* \"#utility.yul\":3348:3411   */\n      tag_169\n      jumpi\n        /* \"#utility.yul\":3407:3408   */\n      0x00\n        /* \"#utility.yul\":3404:3405   */\n      dup1\n        /* \"#utility.yul\":3397:3409   */\n      revert\n        /* \"#utility.yul\":3348:3411   */\n    tag_169:\n        /* \"#utility.yul\":3295:3417   */\n      pop\n      jump\t// out\n        /* \"#utility.yul\":3423:3562   */\n    tag_93:\n        /* \"#utility.yul\":3469:3474   */\n      0x00\n        /* \"#utility.yul\":3507:3513   */\n      dup2\n        /* \"#utility.yul\":3494:3514   */\n      calldataload\n        /* \"#utility.yul\":3485:3514   */\n      swap1\n      pop\n        /* \"#utility.yul\":3523:3556   */\n      tag_171\n        /* \"#utility.yul\":3550:3555   */\n      dup2\n        /* \"#utility.yul\":3523:3556   */\n      tag_92\n      jump\t// in\n    tag_171:\n        /* \"#utility.yul\":3423:3562   */\n      swap3\n      swap2\n      pop\n      pop\n      jump\t// out\n        /* \"#utility.yul\":3568:4042   */\n    tag_17:\n        /* \"#utility.yul\":3636:3642   */\n      0x00\n        /* \"#utility.yul\":3644:3650   */\n      dup1\n        /* \"#utility.yul\":3693:3695   */\n      0x40\n        /* \"#utility.yul\":3681:3690   */\n      dup4\n        /* \"#utility.yul\":3672:3679   */\n      dup6\n        /* \"#utility.yul\":3668:3691   */\n      sub\n        /* \"#utility.yul\":3664:3696   */\n      slt\n        /* \"#utility.yul\":3661:3780   */\n      iszero\n      tag_173\n      jumpi\n        /* \"#utility.yul\":3699:3778   */\n      tag_174\n      tag_78\n      jump\t// in\n    tag_174:\n        /* \"#utility.yul\":3661:3780   */\n    tag_173:\n        /* \"#utility.yul\":3819:3820   */\n      0x00\n        /* \"#utility.yul\":3844:3897   */\n      tag_175\n        /* \"#utility.yul\":3889:3896   */\n      dup6\n        /* \"#utility.yul\":3880:3886   */\n      dup3\n        /* \"#utility.yul\":3869:3878   */\n      dup7\n        /* \"#utility.yul\":3865:3887   */\n      add\n        /* \"#utility.yul\":3844:3897   */\n      tag_93\n      jump\t// in\n    tag_175:\n        /* \"#utility.yul\":3834:3897   */\n      swap3\n      pop\n        /* \"#utility.yul\":3790:3907   */\n      pop\n        /* \"#utility.yul\":3946:3948   */\n      0x20\n        /* \"#utility.yul\":3972:4025   */\n      tag_176\n        /* \"#utility.yul\":4017:4024   */\n      dup6\n        /* \"#utility.yul\":4008:4014   */\n      dup3\n        /* \"#utility.yul\":3997:4006   */\n      dup7\n        /* \"#utility.yul\":3993:4015   */\n      add\n        /* \"#utility.yul\":3972:4025   */\n      tag_82\n      jump\t// in\n    tag_176:\n        /* \"#utility.yul\":3962:4025   */\n      swap2\n      pop\n        /* \"#utility.yul\":3917:4035   */\n      pop\n        /* \"#utility.yul\":3568:4042   */\n      swap3\n      pop\n      swap3\n      swap1\n      pop\n      jump\t// out\n        /* \"#utility.yul\":4048:4270   */\n    tag_20:\n        /* \"#utility.yul\":4141:4145   */\n      0x00\n        /* \"#utility.yul\":4179:4181   */\n      0x20\n        /* \"#utility.yul\":4168:4177   */\n      dup3\n        /* \"#utility.yul\":4164:4182   */\n      add\n        /* \"#utility.yul\":4156:4182   */\n      swap1\n      pop\n        /* \"#utility.yul\":4192:4263   */\n      tag_178\n        /* \"#utility.yul\":4260:4261   */\n      0x00\n        /* \"#utility.yul\":4249:4258   */\n      dup4\n        /* \"#utility.yul\":4245:4262   */\n      add\n        /* \"#utility.yul\":4236:4242   */\n      dup5\n        /* \"#utility.yul\":4192:4263   */\n      tag_91\n      jump\t// in\n    tag_178:\n        /* \"#utility.yul\":4048:4270   */\n      swap3\n      swap2\n      pop\n      pop\n      jump\t// out\n        /* \"#utility.yul\":4276:4750   */\n    tag_23:\n        /* \"#utility.yul\":4344:4350   */\n      0x00\n        /* \"#utility.yul\":4352:4358   */\n      dup1\n        /* \"#utility.yul\":4401:4403   */\n      0x40\n        /* \"#utility.yul\":4389:4398   */\n      dup4\n        /* \"#utility.yul\":4380:4387   */\n      dup6\n        /* \"#utility.yul\":4376:4399   */\n      sub\n        /* \"#utility.yul\":4372:4404   */\n      slt\n        /* \"#utility.yul\":4369:4488   */\n      iszero\n      tag_180\n      jumpi\n        /* \"#utility.yul\":4407:4486   */\n      tag_181\n      tag_78\n      jump\t// in\n    tag_181:\n        /* \"#utility.yul\":4369:4488   */\n    tag_180:\n        /* \"#utility.yul\":4527:4528   */\n      0x00\n        /* \"#utility.yul\":4552:4605   */\n      tag_182\n        /* \"#utility.yul\":4597:4604   */\n      dup6\n        /* \"#utility.yul\":4588:4594   */\n      dup3\n        /* \"#utility.yul\":4577:4586   */\n      dup7\n        /* \"#utility.yul\":4573:4595   */\n      add\n        /* \"#utility.yul\":4552:4605   */\n      tag_82\n      jump\t// in\n    tag_182:\n        /* \"#utility.yul\":4542:4605   */\n      swap3\n      pop\n        /* \"#utility.yul\":4498:4615   */\n      pop\n        /* \"#utility.yul\":4654:4656   */\n      0x20\n        /* \"#utility.yul\":4680:4733   */\n      tag_183\n        /* \"#utility.yul\":4725:4732   */\n      dup6\n        /* \"#utility.yul\":4716:4722   */\n      dup3\n        /* \"#utility.yul\":4705:4714   */\n      dup7\n        /* \"#utility.yul\":4701:4723   */\n      add\n        /* \"#utility.yul\":4680:4733   */\n      tag_82\n      jump\t// in\n    tag_183:\n        /* \"#utility.yul\":4670:4733   */\n      swap2\n      pop\n        /* \"#utility.yul\":4625:4743   */\n      pop\n        /* \"#utility.yul\":4276:4750   */\n      swap3\n      pop\n      swap3\n      swap1\n      pop\n      jump\t// out\n        /* \"#utility.yul\":4756:4873   */\n    tag_94:\n        /* \"#utility.yul\":4865:4866   */\n      0x00\n        /* \"#utility.yul\":4862:4863   */\n      dup1\n        /* \"#utility.yul\":4855:4867   */\n      revert\n        /* \"#utility.yul\":4879:4996   */\n    tag_95:\n        /* \"#utility.yul\":4988:4989   */\n      0x00\n        /* \"#utility.yul\":4985:4986   */\n      dup1\n        /* \"#utility.yul\":4978:4990   */\n      revert\n        /* \"#utility.yul\":5002:5182   */\n    tag_96:\n        /* \"#utility.yul\":5050:5127   */\n      0x4e487b7100000000000000000000000000000000000000000000000000000000\n        /* \"#utility.yul\":5047:5048   */\n      0x00\n        /* \"#utility.yul\":5040:5128   */\n      mstore\n        /* \"#utility.yul\":5147:5151   */\n      0x41\n        /* \"#utility.yul\":5144:5145   */\n      0x04\n        /* \"#utility.yul\":5137:5152   */\n      mstore\n        /* \"#utility.yul\":5171:5175   */\n      0x24\n        /* \"#utility.yul\":5168:5169   */\n      0x00\n        /* \"#utility.yul\":5161:5176   */\n      revert\n        /* \"#utility.yul\":5188:5469   */\n    tag_97:\n        /* \"#utility.yul\":5271:5298   */\n      tag_188\n        /* \"#utility.yul\":5293:5297   */\n      dup3\n        /* \"#utility.yul\":5271:5298   */\n      tag_89\n      jump\t// in\n    tag_188:\n        /* \"#utility.yul\":5263:5269   */\n      dup2\n        /* \"#utility.yul\":5259:5299   */\n      add\n        /* \"#utility.yul\":5401:5407   */\n      dup2\n        /* \"#utility.yul\":5389:5399   */\n      dup2\n        /* \"#utility.yul\":5386:5408   */\n      lt\n        /* \"#utility.yul\":5365:5383   */\n      0xffffffffffffffff\n        /* \"#utility.yul\":5353:5363   */\n      dup3\n        /* \"#utility.yul\":5350:5384   */\n      gt\n        /* \"#utility.yul\":5347:5409   */\n      or\n        /* \"#utility.yul\":5344:5432   */\n      iszero\n      tag_189\n      jumpi\n        /* \"#utility.yul\":5412:5430   */\n      tag_190\n      tag_96\n      jump\t// in\n    tag_190:\n        /* \"#utility.yul\":5344:5432   */\n    tag_189:\n        /* \"#utility.yul\":5452:5462   */\n      dup1\n        /* \"#utility.yul\":5448:5450   */\n      0x40\n        /* \"#utility.yul\":5441:5463   */\n      mstore\n        /* \"#utility.yul\":5231:5469   */\n      pop\n        /* \"#utility.yul\":5188:5469   */\n      pop\n      pop\n      jump\t// out\n        /* \"#utility.yul\":5475:5604   */\n    tag_98:\n        /* \"#utility.yul\":5509:5515   */\n      0x00\n        /* \"#utility.yul\":5536:5556   */\n      tag_192\n      tag_77\n      jump\t// in\n    tag_192:\n        /* \"#utility.yul\":5526:5556   */\n      swap1\n      pop\n        /* \"#utility.yul\":5565:5598   */\n      tag_193\n        /* \"#utility.yul\":5593:5597   */\n      dup3\n        /* \"#utility.yul\":5585:5591   */\n      dup3\n        /* \"#utility.yul\":5565:5598   */\n      tag_97\n      jump\t// in\n    tag_193:\n        /* \"#utility.yul\":5475:5604   */\n      swap2\n      swap1\n      pop\n      jump\t// out\n        /* \"#utility.yul\":5610:5918   */\n    tag_99:\n        /* \"#utility.yul\":5672:5676   */\n      0x00\n        /* \"#utility.yul\":5762:5780   */\n      0xffffffffffffffff\n        /* \"#utility.yul\":5754:5760   */\n      dup3\n        /* \"#utility.yul\":5751:5781   */\n      gt\n        /* \"#utility.yul\":5748:5804   */\n      iszero\n      tag_195\n      jumpi\n        /* \"#utility.yul\":5784:5802   */\n      tag_196\n      tag_96\n      jump\t// in\n    tag_196:\n        /* \"#utility.yul\":5748:5804   */\n    tag_195:\n        /* \"#utility.yul\":5822:5851   */\n      tag_197\n        /* \"#utility.yul\":5844:5850   */\n      dup3\n        /* \"#utility.yul\":5822:5851   */\n      tag_89\n      jump\t// in\n    tag_197:\n        /* \"#utility.yul\":5814:5851   */\n      swap1\n      pop\n        /* \"#utility.yul\":5906:5910   */\n      0x20\n        /* \"#utility.yul\":5900:5904   */\n      dup2\n        /* \"#utility.yul\":5896:5911   */\n      add\n        /* \"#utility.yul\":5888:5911   */\n      swap1\n      pop\n        /* \"#utility.yul\":5610:5918   */\n      swap2\n      swap1\n      pop\n      jump\t// out\n        /* \"#utility.yul\":5924:6072   */\n    tag_100:\n        /* \"#utility.yul\":6022:6028   */\n      dup3\n        /* \"#utility.yul\":6017:6020   */\n      dup2\n        /* \"#utility.yul\":6012:6015   */\n      dup4\n        /* \"#utility.yul\":5999:6029   */\n      calldatacopy\n        /* \"#utility.yul\":6063:6064   */\n      0x00\n        /* \"#utility.yul\":6054:6060   */\n      dup4\n        /* \"#utility.yul\":6049:6052   */\n      dup4\n        /* \"#utility.yul\":6045:6061   */\n      add\n        /* \"#utility.yul\":6038:6065   */\n      mstore\n        /* \"#utility.yul\":5924:6072   */\n      pop\n      pop\n      pop\n      jump\t// out\n        /* \"#utility.yul\":6078:6503   */\n    tag_101:\n        /* \"#utility.yul\":6156:6161   */\n      0x00\n        /* \"#utility.yul\":6181:6247   */\n      tag_200\n        /* \"#utility.yul\":6197:6246   */\n      tag_201\n        /* \"#utility.yul\":6239:6245   */\n      dup5\n        /* \"#utility.yul\":6197:6246   */\n      tag_99\n      jump\t// in\n    tag_201:\n        /* \"#utility.yul\":6181:6247   */\n      tag_98\n      jump\t// in\n    tag_200:\n        /* \"#utility.yul\":6172:6247   */\n      swap1\n      pop\n        /* \"#utility.yul\":6270:6276   */\n      dup3\n        /* \"#utility.yul\":6263:6268   */\n      dup2\n        /* \"#utility.yul\":6256:6277   */\n      mstore\n        /* \"#utility.yul\":6308:6312   */\n      0x20\n        /* \"#utility.yul\":6301:6306   */\n      dup2\n        /* \"#utility.yul\":6297:6313   */\n      add\n        /* \"#utility.yul\":6346:6349   */\n      dup5\n        /* \"#utility.yul\":6337:6343   */\n      dup5\n        /* \"#utility.yul\":6332:6335   */\n      dup5\n        /* \"#utility.yul\":6328:6344   */\n      add\n        /* \"#utility.yul\":6325:6350   */\n      gt\n        /* \"#utility.yul\":6322:6434   */\n      iszero\n      tag_202\n      jumpi\n        /* \"#utility.yul\":6353:6432   */\n      tag_203\n      tag_95\n      jump\t// in\n    tag_203:\n        /* \"#utility.yul\":6322:6434   */\n    tag_202:\n        /* \"#utility.yul\":6443:6497   */\n      tag_204\n        /* \"#utility.yul\":6490:6496   */\n      dup5\n        /* \"#utility.yul\":6485:6488   */\n      dup3\n        /* \"#utility.yul\":6480:6483   */\n      dup6\n        /* \"#utility.yul\":6443:6497   */\n      tag_100\n      jump\t// in\n    tag_204:\n        /* \"#utility.yul\":6162:6503   */\n      pop\n        /* \"#utility.yul\":6078:6503   */\n      swap4\n      swap3\n      pop\n      pop\n      pop\n      jump\t// out\n        /* \"#utility.yul\":6523:6863   */\n    tag_102:\n        /* \"#utility.yul\":6579:6584   */\n      0x00\n        /* \"#utility.yul\":6628:6631   */\n      dup3\n        /* \"#utility.yul\":6621:6625   */\n      0x1f\n        /* \"#utility.yul\":6613:6619   */\n      dup4\n        /* \"#utility.yul\":6609:6626   */\n      add\n        /* \"#utility.yul\":6605:6632   */\n      slt\n        /* \"#utility.yul\":6595:6717   */\n      tag_206\n      jumpi\n        /* \"#utility.yul\":6636:6715   */\n      tag_207\n      tag_94\n      jump\t// in\n    tag_207:\n        /* \"#utility.yul\":6595:6717   */\n    tag_206:\n        /* \"#utility.yul\":6753:6759   */\n      dup2\n        /* \"#utility.yul\":6740:6760   */\n      calldataload\n        /* \"#utility.yul\":6778:6857   */\n      tag_208\n        /* \"#utility.yul\":6853:6856   */\n      dup5\n        /* \"#utility.yul\":6845:6851   */\n      dup3\n        /* \"#utility.yul\":6838:6842   */\n      0x20\n        /* \"#utility.yul\":6830:6836   */\n      dup7\n        /* \"#utility.yul\":6826:6843   */\n      add\n        /* \"#utility.yul\":6778:6857   */\n      tag_101\n      jump\t// in\n    tag_208:\n        /* \"#utility.yul\":6769:6857   */\n      swap2\n      pop\n        /* \"#utility.yul\":6585:6863   */\n      pop\n        /* \"#utility.yul\":6523:6863   */\n      swap3\n      swap2\n      pop\n      pop\n      jump\t// out\n        /* \"#utility.yul\":6869:7814   */\n    tag_28:\n        /* \"#utility.yul\":6965:6971   */\n      0x00\n        /* \"#utility.yul\":6973:6979   */\n      dup1\n        /* \"#utility.yul\":6981:6987   */\n      0x00\n        /* \"#utility.yul\":6989:6995   */\n      dup1\n        /* \"#utility.yul\":7038:7041   */\n      0x80\n        /* \"#utility.yul\":7026:7035   */\n      dup6\n        /* \"#utility.yul\":7017:7024   */\n      dup8\n        /* \"#utility.yul\":7013:7036   */\n      sub\n        /* \"#utility.yul\":7009:7042   */\n      slt\n        /* \"#utility.yul\":7006:7126   */\n      iszero\n      tag_210\n      jumpi\n        /* \"#utility.yul\":7045:7124   */\n      tag_211\n      tag_78\n      jump\t// in\n    tag_211:\n        /* \"#utility.yul\":7006:7126   */\n    tag_210:\n        /* \"#utility.yul\":7193:7194   */\n      0x00\n        /* \"#utility.yul\":7182:7191   */\n      dup6\n        /* \"#utility.yul\":7178:7195   */\n      add\n        /* \"#utility.yul\":7165:7196   */\n      calldataload\n        /* \"#utility.yul\":7223:7241   */\n      0xffffffffffffffff\n        /* \"#utility.yul\":7215:7221   */\n      dup2\n        /* \"#utility.yul\":7212:7242   */\n      gt\n        /* \"#utility.yul\":7209:7326   */\n      iszero\n      tag_212\n      jumpi\n        /* \"#utility.yul\":7245:7324   */\n      tag_213\n      tag_79\n      jump\t// in\n    tag_213:\n        /* \"#utility.yul\":7209:7326   */\n    tag_212:\n        /* \"#utility.yul\":7350:7413   */\n      tag_214\n        /* \"#utility.yul\":7405:7412   */\n      dup8\n        /* \"#utility.yul\":7396:7402   */\n      dup3\n        /* \"#utility.yul\":7385:7394   */\n      dup9\n        /* \"#utility.yul\":7381:7403   */\n      add\n        /* \"#utility.yul\":7350:7413   */\n      tag_102\n      jump\t// in\n    tag_214:\n        /* \"#utility.yul\":7340:7413   */\n      swap5\n      pop\n        /* \"#utility.yul\":7136:7423   */\n      pop\n        /* \"#utility.yul\":7462:7464   */\n      0x20\n        /* \"#utility.yul\":7488:7541   */\n      tag_215\n        /* \"#utility.yul\":7533:7540   */\n      dup8\n        /* \"#utility.yul\":7524:7530   */\n      dup3\n        /* \"#utility.yul\":7513:7522   */\n      dup9\n        /* \"#utility.yul\":7509:7531   */\n      add\n        /* \"#utility.yul\":7488:7541   */\n      tag_82\n      jump\t// in\n    tag_215:\n        /* \"#utility.yul\":7478:7541   */\n      swap4\n      pop\n        /* \"#utility.yul\":7433:7551   */\n      pop\n        /* \"#utility.yul\":7590:7592   */\n      0x40\n        /* \"#utility.yul\":7616:7669   */\n      tag_216\n        /* \"#utility.yul\":7661:7668   */\n      dup8\n        /* \"#utility.yul\":7652:7658   */\n      dup3\n        /* \"#utility.yul\":7641:7650   */\n      dup9\n        /* \"#utility.yul\":7637:7659   */\n      add\n        /* \"#utility.yul\":7616:7669   */\n      tag_82\n      jump\t// in\n    tag_216:\n        /* \"#utility.yul\":7606:7669   */\n      swap3\n      pop\n        /* \"#utility.yul\":7561:7679   */\n      pop\n        /* \"#utility.yul\":7718:7720   */\n      0x60\n        /* \"#utility.yul\":7744:7797   */\n      tag_217\n        /* \"#utility.yul\":7789:7796   */\n      dup8\n        /* \"#utility.yul\":7780:7786   */\n      dup3\n        /* \"#utility.yul\":7769:7778   */\n      dup9\n        /* \"#utility.yul\":7765:7787   */\n      add\n        /* \"#utility.yul\":7744:7797   */\n      tag_82\n      jump\t// in\n    tag_217:\n        /* \"#utility.yul\":7734:7797   */\n      swap2\n      pop\n        /* \"#utility.yul\":7689:7807   */\n      pop\n        /* \"#utility.yul\":6869:7814   */\n      swap3\n      swap6\n      swap2\n      swap5\n      pop\n      swap3\n      pop\n      jump\t// out\n        /* \"#utility.yul\":7820:8439   */\n    tag_33:\n        /* \"#utility.yul\":7897:7903   */\n      0x00\n        /* \"#utility.yul\":7905:7911   */\n      dup1\n        /* \"#utility.yul\":7913:7919   */\n      0x00\n        /* \"#utility.yul\":7962:7964   */\n      0x60\n        /* \"#utility.yul\":7950:7959   */\n      dup5\n        /* \"#utility.yul\":7941:7948   */\n      dup7\n        /* \"#utility.yul\":7937:7960   */\n      sub\n        /* \"#utility.yul\":7933:7965   */\n      slt\n        /* \"#utility.yul\":7930:8049   */\n      iszero\n      tag_219\n      jumpi\n        /* \"#utility.yul\":7968:8047   */\n      tag_220\n      tag_78\n      jump\t// in\n    tag_220:\n        /* \"#utility.yul\":7930:8049   */\n    tag_219:\n        /* \"#utility.yul\":8088:8089   */\n      0x00\n        /* \"#utility.yul\":8113:8166   */\n      tag_221\n        /* \"#utility.yul\":8158:8165   */\n      dup7\n        /* \"#utility.yul\":8149:8155   */\n      dup3\n        /* \"#utility.yul\":8138:8147   */\n      dup8\n        /* \"#utility.yul\":8134:8156   */\n      add\n        /* \"#utility.yul\":8113:8166   */\n      tag_82\n      jump\t// in\n    tag_221:\n        /* \"#utility.yul\":8103:8166   */\n      swap4\n      pop\n        /* \"#utility.yul\":8059:8176   */\n      pop\n        /* \"#utility.yul\":8215:8217   */\n      0x20\n        /* \"#utility.yul\":8241:8294   */\n      tag_222\n        /* \"#utility.yul\":8286:8293   */\n      dup7\n        /* \"#utility.yul\":8277:8283   */\n      dup3\n        /* \"#utility.yul\":8266:8275   */\n      dup8\n        /* \"#utility.yul\":8262:8284   */\n      add\n        /* \"#utility.yul\":8241:8294   */\n      tag_82\n      jump\t// in\n    tag_222:\n        /* \"#utility.yul\":8231:8294   */\n      swap3\n      pop\n        /* \"#utility.yul\":8186:8304   */\n      pop\n        /* \"#utility.yul\":8343:8345   */\n      0x40\n        /* \"#utility.yul\":8369:8422   */\n      tag_223\n        /* \"#utility.yul\":8414:8421   */\n      dup7\n        /* \"#utility.yul\":8405:8411   */\n      dup3\n        /* \"#utility.yul\":8394:8403   */\n      dup8\n        /* \"#utility.yul\":8390:8412   */\n      add\n        /* \"#utility.yul\":8369:8422   */\n      tag_93\n      jump\t// in\n    tag_223:\n        /* \"#utility.yul\":8359:8422   */\n      swap2\n      pop\n        /* \"#utility.yul\":8314:8432   */\n      pop\n        /* \"#utility.yul\":7820:8439   */\n      swap3\n      pop\n      swap3\n      pop\n      swap3\n      jump\t// out\n        /* \"#utility.yul\":8445:8625   */\n    tag_103:\n        /* \"#utility.yul\":8493:8570   */\n      0x4e487b7100000000000000000000000000000000000000000000000000000000\n        /* \"#utility.yul\":8490:8491   */\n      0x00\n        /* \"#utility.yul\":8483:8571   */\n      mstore\n        /* \"#utility.yul\":8590:8594   */\n      0x22\n        /* \"#utility.yul\":8587:8588   */\n      0x04\n        /* \"#utility.yul\":8580:8595   */\n      mstore\n        /* \"#utility.yul\":8614:8618   */\n      0x24\n        /* \"#utility.yul\":8611:8612   */\n      0x00\n        /* \"#utility.yul\":8604:8619   */\n      revert\n        /* \"#utility.yul\":8631:8951   */\n    tag_36:\n        /* \"#utility.yul\":8675:8681   */\n      0x00\n        /* \"#utility.yul\":8712:8713   */\n      0x02\n        /* \"#utility.yul\":8706:8710   */\n      dup3\n        /* \"#utility.yul\":8702:8714   */\n      div\n        /* \"#utility.yul\":8692:8714   */\n      swap1\n      pop\n        /* \"#utility.yul\":8759:8760   */\n      0x01\n        /* \"#utility.yul\":8753:8757   */\n      dup3\n        /* \"#utility.yul\":8749:8761   */\n      and\n        /* \"#utility.yul\":8780:8798   */\n      dup1\n        /* \"#utility.yul\":8770:8851   */\n      tag_226\n      jumpi\n        /* \"#utility.yul\":8836:8840   */\n      0x7f\n        /* \"#utility.yul\":8828:8834   */\n      dup3\n        /* \"#utility.yul\":8824:8841   */\n      and\n        /* \"#utility.yul\":8814:8841   */\n      swap2\n      pop\n        /* \"#utility.yul\":8770:8851   */\n    tag_226:\n        /* \"#utility.yul\":8898:8900   */\n      0x20\n        /* \"#utility.yul\":8890:8896   */\n      dup3\n        /* \"#utility.yul\":8887:8901   */\n      lt\n        /* \"#utility.yul\":8867:8885   */\n      dup2\n        /* \"#utility.yul\":8864:8902   */\n      sub\n        /* \"#utility.yul\":8861:8945   */\n      tag_227\n      jumpi\n        /* \"#utility.yul\":8917:8935   */\n      tag_228\n      tag_103\n      jump\t// in\n    tag_228:\n        /* \"#utility.yul\":8861:8945   */\n    tag_227:\n        /* \"#utility.yul\":8682:8951   */\n      pop\n        /* \"#utility.yul\":8631:8951   */\n      swap2\n      swap1\n      pop\n      jump\t// out\n        /* \"#utility.yul\":8957:9127   */\n    tag_104:\n        /* \"#utility.yul\":9097:9119   */\n      0x6576656e7420646f6573204e6f74204578697374000000000000000000000000\n        /* \"#utility.yul\":9093:9094   */\n      0x00\n        /* \"#utility.yul\":9085:9091   */\n      dup3\n        /* \"#utility.yul\":9081:9095   */\n      add\n        /* \"#utility.yul\":9074:9120   */\n      mstore\n        /* \"#utility.yul\":8957:9127   */\n      pop\n      jump\t// out\n        /* \"#utility.yul\":9133:9499   */\n    tag_105:\n        /* \"#utility.yul\":9275:9278   */\n      0x00\n        /* \"#utility.yul\":9296:9363   */\n      tag_231\n        /* \"#utility.yul\":9360:9362   */\n      0x14\n        /* \"#utility.yul\":9355:9358   */\n      dup4\n        /* \"#utility.yul\":9296:9363   */\n      tag_87\n      jump\t// in\n    tag_231:\n        /* \"#utility.yul\":9289:9363   */\n      swap2\n      pop\n        /* \"#utility.yul\":9372:9465   */\n      tag_232\n        /* \"#utility.yul\":9461:9464   */\n      dup3\n        /* \"#utility.yul\":9372:9465   */\n      tag_104\n      jump\t// in\n    tag_232:\n        /* \"#utility.yul\":9490:9492   */\n      0x20\n        /* \"#utility.yul\":9485:9488   */\n      dup3\n        /* \"#utility.yul\":9481:9493   */\n      add\n        /* \"#utility.yul\":9474:9493   */\n      swap1\n      pop\n        /* \"#utility.yul\":9133:9499   */\n      swap2\n      swap1\n      pop\n      jump\t// out\n        /* \"#utility.yul\":9505:9924   */\n    tag_44:\n        /* \"#utility.yul\":9671:9675   */\n      0x00\n        /* \"#utility.yul\":9709:9711   */\n      0x20\n        /* \"#utility.yul\":9698:9707   */\n      dup3\n        /* \"#utility.yul\":9694:9712   */\n      add\n        /* \"#utility.yul\":9686:9712   */\n      swap1\n      pop\n        /* \"#utility.yul\":9758:9767   */\n      dup2\n        /* \"#utility.yul\":9752:9756   */\n      dup2\n        /* \"#utility.yul\":9748:9768   */\n      sub\n        /* \"#utility.yul\":9744:9745   */\n      0x00\n        /* \"#utility.yul\":9733:9742   */\n      dup4\n        /* \"#utility.yul\":9729:9746   */\n      add\n        /* \"#utility.yul\":9722:9769   */\n      mstore\n        /* \"#utility.yul\":9786:9917   */\n      tag_234\n        /* \"#utility.yul\":9912:9916   */\n      dup2\n        /* \"#utility.yul\":9786:9917   */\n      tag_105\n      jump\t// in\n    tag_234:\n        /* \"#utility.yul\":9778:9917   */\n      swap1\n      pop\n        /* \"#utility.yul\":9505:9924   */\n      swap2\n      swap1\n      pop\n      jump\t// out\n        /* \"#utility.yul\":9930:10101   */\n    tag_106:\n        /* \"#utility.yul\":10070:10093   */\n      0x6576656e7420616c7265616479206f6363757265640000000000000000000000\n        /* \"#utility.yul\":10066:10067   */\n      0x00\n        /* \"#utility.yul\":10058:10064   */\n      dup3\n        /* \"#utility.yul\":10054:10068   */\n      add\n        /* \"#utility.yul\":10047:10094   */\n      mstore\n        /* \"#utility.yul\":9930:10101   */\n      pop\n      jump\t// out\n        /* \"#utility.yul\":10107:10473   */\n    tag_107:\n        /* \"#utility.yul\":10249:10252   */\n      0x00\n        /* \"#utility.yul\":10270:10337   */\n      tag_237\n        /* \"#utility.yul\":10334:10336   */\n      0x15\n        /* \"#utility.yul\":10329:10332   */\n      dup4\n        /* \"#utility.yul\":10270:10337   */\n      tag_87\n      jump\t// in\n    tag_237:\n        /* \"#utility.yul\":10263:10337   */\n      swap2\n      pop\n        /* \"#utility.yul\":10346:10439   */\n      tag_238\n        /* \"#utility.yul\":10435:10438   */\n      dup3\n        /* \"#utility.yul\":10346:10439   */\n      tag_106\n      jump\t// in\n    tag_238:\n        /* \"#utility.yul\":10464:10466   */\n      0x20\n        /* \"#utility.yul\":10459:10462   */\n      dup3\n        /* \"#utility.yul\":10455:10467   */\n      add\n        /* \"#utility.yul\":10448:10467   */\n      swap1\n      pop\n        /* \"#utility.yul\":10107:10473   */\n      swap2\n      swap1\n      pop\n      jump\t// out\n        /* \"#utility.yul\":10479:10898   */\n    tag_47:\n        /* \"#utility.yul\":10645:10649   */\n      0x00\n        /* \"#utility.yul\":10683:10685   */\n      0x20\n        /* \"#utility.yul\":10672:10681   */\n      dup3\n        /* \"#utility.yul\":10668:10686   */\n      add\n        /* \"#utility.yul\":10660:10686   */\n      swap1\n      pop\n        /* \"#utility.yul\":10732:10741   */\n      dup2\n        /* \"#utility.yul\":10726:10730   */\n      dup2\n        /* \"#utility.yul\":10722:10742   */\n      sub\n        /* \"#utility.yul\":10718:10719   */\n      0x00\n        /* \"#utility.yul\":10707:10716   */\n      dup4\n        /* \"#utility.yul\":10703:10720   */\n      add\n        /* \"#utility.yul\":10696:10743   */\n      mstore\n        /* \"#utility.yul\":10760:10891   */\n      tag_240\n        /* \"#utility.yul\":10886:10890   */\n      dup2\n        /* \"#utility.yul\":10760:10891   */\n      tag_107\n      jump\t// in\n    tag_240:\n        /* \"#utility.yul\":10752:10891   */\n      swap1\n      pop\n        /* \"#utility.yul\":10479:10898   */\n      swap2\n      swap1\n      pop\n      jump\t// out\n        /* \"#utility.yul\":10904:11084   */\n    tag_108:\n        /* \"#utility.yul\":10952:11029   */\n      0x4e487b7100000000000000000000000000000000000000000000000000000000\n        /* \"#utility.yul\":10949:10950   */\n      0x00\n        /* \"#utility.yul\":10942:11030   */\n      mstore\n        /* \"#utility.yul\":11049:11053   */\n      0x11\n        /* \"#utility.yul\":11046:11047   */\n      0x04\n        /* \"#utility.yul\":11039:11054   */\n      mstore\n        /* \"#utility.yul\":11073:11077   */\n      0x24\n        /* \"#utility.yul\":11070:11071   */\n      0x00\n        /* \"#utility.yul\":11063:11078   */\n      revert\n        /* \"#utility.yul\":11090:11500   */\n    tag_49:\n        /* \"#utility.yul\":11130:11137   */\n      0x00\n        /* \"#utility.yul\":11153:11173   */\n      tag_243\n        /* \"#utility.yul\":11171:11172   */\n      dup3\n        /* \"#utility.yul\":11153:11173   */\n      tag_80\n      jump\t// in\n    tag_243:\n        /* \"#utility.yul\":11148:11173   */\n      swap2\n      pop\n        /* \"#utility.yul\":11187:11207   */\n      tag_244\n        /* \"#utility.yul\":11205:11206   */\n      dup4\n        /* \"#utility.yul\":11187:11207   */\n      tag_80\n      jump\t// in\n    tag_244:\n        /* \"#utility.yul\":11182:11207   */\n      swap3\n      pop\n        /* \"#utility.yul\":11242:11243   */\n      dup3\n        /* \"#utility.yul\":11239:11240   */\n      dup3\n        /* \"#utility.yul\":11235:11244   */\n      mul\n        /* \"#utility.yul\":11264:11294   */\n      tag_245\n        /* \"#utility.yul\":11282:11293   */\n      dup2\n        /* \"#utility.yul\":11264:11294   */\n      tag_80\n      jump\t// in\n    tag_245:\n        /* \"#utility.yul\":11253:11294   */\n      swap2\n      pop\n        /* \"#utility.yul\":11443:11444   */\n      dup3\n        /* \"#utility.yul\":11434:11441   */\n      dup3\n        /* \"#utility.yul\":11430:11445   */\n      div\n        /* \"#utility.yul\":11427:11428   */\n      dup5\n        /* \"#utility.yul\":11424:11446   */\n      eq\n        /* \"#utility.yul\":11404:11405   */\n      dup4\n        /* \"#utility.yul\":11397:11406   */\n      iszero\n        /* \"#utility.yul\":11377:11460   */\n      or\n        /* \"#utility.yul\":11354:11493   */\n      tag_246\n      jumpi\n        /* \"#utility.yul\":11473:11491   */\n      tag_247\n      tag_108\n      jump\t// in\n    tag_247:\n        /* \"#utility.yul\":11354:11493   */\n    tag_246:\n        /* \"#utility.yul\":11138:11500   */\n      pop\n        /* \"#utility.yul\":11090:11500   */\n      swap3\n      swap2\n      pop\n      pop\n      jump\t// out\n        /* \"#utility.yul\":11506:11675   */\n    tag_109:\n        /* \"#utility.yul\":11646:11667   */\n      0x4574686572206973206e6f7420656e6f75676800000000000000000000000000\n        /* \"#utility.yul\":11642:11643   */\n      0x00\n        /* \"#utility.yul\":11634:11640   */\n      dup3\n        /* \"#utility.yul\":11630:11644   */\n      add\n        /* \"#utility.yul\":11623:11668   */\n      mstore\n        /* \"#utility.yul\":11506:11675   */\n      pop\n      jump\t// out\n        /* \"#utility.yul\":11681:12047   */\n    tag_110:\n        /* \"#utility.yul\":11823:11826   */\n      0x00\n        /* \"#utility.yul\":11844:11911   */\n      tag_250\n        /* \"#utility.yul\":11908:11910   */\n      0x13\n        /* \"#utility.yul\":11903:11906   */\n      dup4\n        /* \"#utility.yul\":11844:11911   */\n      tag_87\n      jump\t// in\n    tag_250:\n        /* \"#utility.yul\":11837:11911   */\n      swap2\n      pop\n        /* \"#utility.yul\":11920:12013   */\n      tag_251\n        /* \"#utility.yul\":12009:12012   */\n      dup3\n        /* \"#utility.yul\":11920:12013   */\n      tag_109\n      jump\t// in\n    tag_251:\n        /* \"#utility.yul\":12038:12040   */\n      0x20\n        /* \"#utility.yul\":12033:12036   */\n      dup3\n        /* \"#utility.yul\":12029:12041   */\n      add\n        /* \"#utility.yul\":12022:12041   */\n      swap1\n      pop\n        /* \"#utility.yul\":11681:12047   */\n      swap2\n      swap1\n      pop\n      jump\t// out\n        /* \"#utility.yul\":12053:12472   */\n    tag_52:\n        /* \"#utility.yul\":12219:12223   */\n      0x00\n        /* \"#utility.yul\":12257:12259   */\n      0x20\n        /* \"#utility.yul\":12246:12255   */\n      dup3\n        /* \"#utility.yul\":12242:12260   */\n      add\n        /* \"#utility.yul\":12234:12260   */\n      swap1\n      pop\n        /* \"#utility.yul\":12306:12315   */\n      dup2\n        /* \"#utility.yul\":12300:12304   */\n      dup2\n        /* \"#utility.yul\":12296:12316   */\n      sub\n        /* \"#utility.yul\":12292:12293   */\n      0x00\n        /* \"#utility.yul\":12281:12290   */\n      dup4\n        /* \"#utility.yul\":12277:12294   */\n      add\n        /* \"#utility.yul\":12270:12317   */\n      mstore\n        /* \"#utility.yul\":12334:12465   */\n      tag_253\n        /* \"#utility.yul\":12460:12464   */\n      dup2\n        /* \"#utility.yul\":12334:12465   */\n      tag_110\n      jump\t// in\n    tag_253:\n        /* \"#utility.yul\":12326:12465   */\n      swap1\n      pop\n        /* \"#utility.yul\":12053:12472   */\n      swap2\n      swap1\n      pop\n      jump\t// out\n        /* \"#utility.yul\":12478:12672   */\n    tag_55:\n        /* \"#utility.yul\":12518:12522   */\n      0x00\n        /* \"#utility.yul\":12538:12558   */\n      tag_255\n        /* \"#utility.yul\":12556:12557   */\n      dup3\n        /* \"#utility.yul\":12538:12558   */\n      tag_80\n      jump\t// in\n    tag_255:\n        /* \"#utility.yul\":12533:12558   */\n      swap2\n      pop\n        /* \"#utility.yul\":12572:12592   */\n      tag_256\n        /* \"#utility.yul\":12590:12591   */\n      dup4\n        /* \"#utility.yul\":12572:12592   */\n      tag_80\n      jump\t// in\n    tag_256:\n        /* \"#utility.yul\":12567:12592   */\n      swap3\n      pop\n        /* \"#utility.yul\":12616:12617   */\n      dup3\n        /* \"#utility.yul\":12613:12614   */\n      dup3\n        /* \"#utility.yul\":12609:12618   */\n      sub\n        /* \"#utility.yul\":12601:12618   */\n      swap1\n      pop\n        /* \"#utility.yul\":12640:12641   */\n      dup2\n        /* \"#utility.yul\":12634:12638   */\n      dup2\n        /* \"#utility.yul\":12631:12642   */\n      gt\n        /* \"#utility.yul\":12628:12665   */\n      iszero\n      tag_257\n      jumpi\n        /* \"#utility.yul\":12645:12663   */\n      tag_258\n      tag_108\n      jump\t// in\n    tag_258:\n        /* \"#utility.yul\":12628:12665   */\n    tag_257:\n        /* \"#utility.yul\":12478:12672   */\n      swap3\n      swap2\n      pop\n      pop\n      jump\t// out\n        /* \"#utility.yul\":12678:12869   */\n    tag_57:\n        /* \"#utility.yul\":12718:12721   */\n      0x00\n        /* \"#utility.yul\":12737:12757   */\n      tag_260\n        /* \"#utility.yul\":12755:12756   */\n      dup3\n        /* \"#utility.yul\":12737:12757   */\n      tag_80\n      jump\t// in\n    tag_260:\n        /* \"#utility.yul\":12732:12757   */\n      swap2\n      pop\n        /* \"#utility.yul\":12771:12791   */\n      tag_261\n        /* \"#utility.yul\":12789:12790   */\n      dup4\n        /* \"#utility.yul\":12771:12791   */\n      tag_80\n      jump\t// in\n    tag_261:\n        /* \"#utility.yul\":12766:12791   */\n      swap3\n      pop\n        /* \"#utility.yul\":12814:12815   */\n      dup3\n        /* \"#utility.yul\":12811:12812   */\n      dup3\n        /* \"#utility.yul\":12807:12816   */\n      add\n        /* \"#utility.yul\":12800:12816   */\n      swap1\n      pop\n        /* \"#utility.yul\":12835:12838   */\n      dup1\n        /* \"#utility.yul\":12832:12833   */\n      dup3\n        /* \"#utility.yul\":12829:12839   */\n      gt\n        /* \"#utility.yul\":12826:12862   */\n      iszero\n      tag_262\n      jumpi\n        /* \"#utility.yul\":12842:12860   */\n      tag_263\n      tag_108\n      jump\t// in\n    tag_263:\n        /* \"#utility.yul\":12826:12862   */\n    tag_262:\n        /* \"#utility.yul\":12678:12869   */\n      swap3\n      swap2\n      pop\n      pop\n      jump\t// out\n        /* \"#utility.yul\":12875:13048   */\n    tag_111:\n        /* \"#utility.yul\":13015:13040   */\n      0x637265617465206576656e7420666f7220667574757265000000000000000000\n        /* \"#utility.yul\":13011:13012   */\n      0x00\n        /* \"#utility.yul\":13003:13009   */\n      dup3\n        /* \"#utility.yul\":12999:13013   */\n      add\n        /* \"#utility.yul\":12992:13041   */\n      mstore\n        /* \"#utility.yul\":12875:13048   */\n      pop\n      jump\t// out\n        /* \"#utility.yul\":13054:13420   */\n    tag_112:\n        /* \"#utility.yul\":13196:13199   */\n      0x00\n        /* \"#utility.yul\":13217:13284   */\n      tag_266\n        /* \"#utility.yul\":13281:13283   */\n      0x17\n        /* \"#utility.yul\":13276:13279   */\n      dup4\n        /* \"#utility.yul\":13217:13284   */\n      tag_87\n      jump\t// in\n    tag_266:\n        /* \"#utility.yul\":13210:13284   */\n      swap2\n      pop\n        /* \"#utility.yul\":13293:13386   */\n      tag_267\n        /* \"#utility.yul\":13382:13385   */\n      dup3\n        /* \"#utility.yul\":13293:13386   */\n      tag_111\n      jump\t// in\n    tag_267:\n        /* \"#utility.yul\":13411:13413   */\n      0x20\n        /* \"#utility.yul\":13406:13409   */\n      dup3\n        /* \"#utility.yul\":13402:13414   */\n      add\n        /* \"#utility.yul\":13395:13414   */\n      swap1\n      pop\n        /* \"#utility.yul\":13054:13420   */\n      swap2\n      swap1\n      pop\n      jump\t// out\n        /* \"#utility.yul\":13426:13845   */\n    tag_61:\n        /* \"#utility.yul\":13592:13596   */\n      0x00\n        /* \"#utility.yul\":13630:13632   */\n      0x20\n        /* \"#utility.yul\":13619:13628   */\n      dup3\n        /* \"#utility.yul\":13615:13633   */\n      add\n        /* \"#utility.yul\":13607:13633   */\n      swap1\n      pop\n        /* \"#utility.yul\":13679:13688   */\n      dup2\n        /* \"#utility.yul\":13673:13677   */\n      dup2\n        /* \"#utility.yul\":13669:13689   */\n      sub\n        /* \"#utility.yul\":13665:13666   */\n      0x00\n        /* \"#utility.yul\":13654:13663   */\n      dup4\n        /* \"#utility.yul\":13650:13667   */\n      add\n        /* \"#utility.yul\":13643:13690   */\n      mstore\n        /* \"#utility.yul\":13707:13838   */\n      tag_269\n        /* \"#utility.yul\":13833:13837   */\n      dup2\n        /* \"#utility.yul\":13707:13838   */\n      tag_112\n      jump\t// in\n    tag_269:\n        /* \"#utility.yul\":13699:13838   */\n      swap1\n      pop\n        /* \"#utility.yul\":13426:13845   */\n      swap2\n      swap1\n      pop\n      jump\t// out\n        /* \"#utility.yul\":13851:14074   */\n    tag_113:\n        /* \"#utility.yul\":13991:14025   */\n      0x637265617465206576656e7420666f72206d6f7265207468616e20322070656f\n        /* \"#utility.yul\":13987:13988   */\n      0x00\n        /* \"#utility.yul\":13979:13985   */\n      dup3\n        /* \"#utility.yul\":13975:13989   */\n      add\n        /* \"#utility.yul\":13968:14026   */\n      mstore\n        /* \"#utility.yul\":14060:14066   */\n      0x706c657300000000000000000000000000000000000000000000000000000000\n        /* \"#utility.yul\":14055:14057   */\n      0x20\n        /* \"#utility.yul\":14047:14053   */\n      dup3\n        /* \"#utility.yul\":14043:14058   */\n      add\n        /* \"#utility.yul\":14036:14067   */\n      mstore\n        /* \"#utility.yul\":13851:14074   */\n      pop\n      jump\t// out\n        /* \"#utility.yul\":14080:14446   */\n    tag_114:\n        /* \"#utility.yul\":14222:14225   */\n      0x00\n        /* \"#utility.yul\":14243:14310   */\n      tag_272\n        /* \"#utility.yul\":14307:14309   */\n      0x24\n        /* \"#utility.yul\":14302:14305   */\n      dup4\n        /* \"#utility.yul\":14243:14310   */\n      tag_87\n      jump\t// in\n    tag_272:\n        /* \"#utility.yul\":14236:14310   */\n      swap2\n      pop\n        /* \"#utility.yul\":14319:14412   */\n      tag_273\n        /* \"#utility.yul\":14408:14411   */\n      dup3\n        /* \"#utility.yul\":14319:14412   */\n      tag_113\n      jump\t// in\n    tag_273:\n        /* \"#utility.yul\":14437:14439   */\n      0x40\n        /* \"#utility.yul\":14432:14435   */\n      dup3\n        /* \"#utility.yul\":14428:14440   */\n      add\n        /* \"#utility.yul\":14421:14440   */\n      swap1\n      pop\n        /* \"#utility.yul\":14080:14446   */\n      swap2\n      swap1\n      pop\n      jump\t// out\n        /* \"#utility.yul\":14452:14871   */\n    tag_64:\n        /* \"#utility.yul\":14618:14622   */\n      0x00\n        /* \"#utility.yul\":14656:14658   */\n      0x20\n        /* \"#utility.yul\":14645:14654   */\n      dup3\n        /* \"#utility.yul\":14641:14659   */\n      add\n        /* \"#utility.yul\":14633:14659   */\n      swap1\n      pop\n        /* \"#utility.yul\":14705:14714   */\n      dup2\n        /* \"#utility.yul\":14699:14703   */\n      dup2\n        /* \"#utility.yul\":14695:14715   */\n      sub\n        /* \"#utility.yul\":14691:14692   */\n      0x00\n        /* \"#utility.yul\":14680:14689   */\n      dup4\n        /* \"#utility.yul\":14676:14693   */\n      add\n        /* \"#utility.yul\":14669:14716   */\n      mstore\n        /* \"#utility.yul\":14733:14864   */\n      tag_275\n        /* \"#utility.yul\":14859:14863   */\n      dup2\n        /* \"#utility.yul\":14733:14864   */\n      tag_114\n      jump\t// in\n    tag_275:\n        /* \"#utility.yul\":14725:14864   */\n      swap1\n      pop\n        /* \"#utility.yul\":14452:14871   */\n      swap2\n      swap1\n      pop\n      jump\t// out\n        /* \"#utility.yul\":14877:15018   */\n    tag_115:\n        /* \"#utility.yul\":14926:14930   */\n      0x00\n        /* \"#utility.yul\":14949:14952   */\n      dup2\n        /* \"#utility.yul\":14941:14952   */\n      swap1\n      pop\n        /* \"#utility.yul\":14972:14975   */\n      dup2\n        /* \"#utility.yul\":14969:14970   */\n      0x00\n        /* \"#utility.yul\":14962:14976   */\n      mstore\n        /* \"#utility.yul\":15006:15010   */\n      0x20\n        /* \"#utility.yul\":15003:15004   */\n      0x00\n        /* \"#utility.yul\":14993:15011   */\n      keccak256\n        /* \"#utility.yul\":14985:15011   */\n      swap1\n      pop\n        /* \"#utility.yul\":14877:15018   */\n      swap2\n      swap1\n      pop\n      jump\t// out\n        /* \"#utility.yul\":15024:15117   */\n    tag_116:\n        /* \"#utility.yul\":15061:15067   */\n      0x00\n        /* \"#utility.yul\":15108:15110   */\n      0x20\n        /* \"#utility.yul\":15103:15105   */\n      0x1f\n        /* \"#utility.yul\":15096:15101   */\n      dup4\n        /* \"#utility.yul\":15092:15106   */\n      add\n        /* \"#utility.yul\":15088:15111   */\n      div\n        /* \"#utility.yul\":15078:15111   */\n      swap1\n      pop\n        /* \"#utility.yul\":15024:15117   */\n      swap2\n      swap1\n      pop\n      jump\t// out\n        /* \"#utility.yul\":15123:15230   */\n    tag_117:\n        /* \"#utility.yul\":15167:15175   */\n      0x00\n        /* \"#utility.yul\":15217:15222   */\n      dup3\n        /* \"#utility.yul\":15211:15215   */\n      dup3\n        /* \"#utility.yul\":15207:15223   */\n      shl\n        /* \"#utility.yul\":15186:15223   */\n      swap1\n      pop\n        /* \"#utility.yul\":15123:15230   */\n      swap3\n      swap2\n      pop\n      pop\n      jump\t// out\n        /* \"#utility.yul\":15236:15629   */\n    tag_118:\n        /* \"#utility.yul\":15305:15311   */\n      0x00\n        /* \"#utility.yul\":15355:15356   */\n      0x08\n        /* \"#utility.yul\":15343:15353   */\n      dup4\n        /* \"#utility.yul\":15339:15357   */\n      mul\n        /* \"#utility.yul\":15378:15475   */\n      tag_280\n        /* \"#utility.yul\":15408:15474   */\n      0xffffffffffffffffffffffffffffffffffffffffffffffffffffffffffffffff\n        /* \"#utility.yul\":15397:15406   */\n      dup3\n        /* \"#utility.yul\":15378:15475   */\n      tag_117\n      jump\t// in\n    tag_280:\n        /* \"#utility.yul\":15496:15535   */\n      tag_281\n        /* \"#utility.yul\":15526:15534   */\n      dup7\n        /* \"#utility.yul\":15515:15524   */\n      dup4\n        /* \"#utility.yul\":15496:15535   */\n      tag_117\n      jump\t// in\n    tag_281:\n        /* \"#utility.yul\":15484:15535   */\n      swap6\n      pop\n        /* \"#utility.yul\":15568:15572   */\n      dup1\n        /* \"#utility.yul\":15564:15573   */\n      not\n        /* \"#utility.yul\":15557:15562   */\n      dup5\n        /* \"#utility.yul\":15553:15574   */\n      and\n        /* \"#utility.yul\":15544:15574   */\n      swap4\n      pop\n        /* \"#utility.yul\":15617:15621   */\n      dup1\n        /* \"#utility.yul\":15607:15615   */\n      dup7\n        /* \"#utility.yul\":15603:15622   */\n      and\n        /* \"#utility.yul\":15596:15601   */\n      dup5\n        /* \"#utility.yul\":15593:15623   */\n      or\n        /* \"#utility.yul\":15583:15623   */\n      swap3\n      pop\n        /* \"#utility.yul\":15312:15629   */\n      pop\n      pop\n        /* \"#utility.yul\":15236:15629   */\n      swap4\n      swap3\n      pop\n      pop\n      pop\n      jump\t// out\n        /* \"#utility.yul\":15635:15695   */\n    tag_119:\n        /* \"#utility.yul\":15663:15666   */\n      0x00\n        /* \"#utility.yul\":15684:15689   */\n      dup2\n        /* \"#utility.yul\":15677:15689   */\n      swap1\n      pop\n        /* \"#utility.yul\":15635:15695   */\n      swap2\n      swap1\n      pop\n      jump\t// out\n        /* \"#utility.yul\":15701:15843   */\n    tag_120:\n        /* \"#utility.yul\":15751:15760   */\n      0x00\n        /* \"#utility.yul\":15784:15837   */\n      tag_284\n        /* \"#utility.yul\":15802:15836   */\n      tag_285\n        /* \"#utility.yul\":15811:15835   */\n      tag_286\n        /* \"#utility.yul\":15829:15834   */\n      dup5\n        /* \"#utility.yul\":15811:15835   */\n      tag_80\n      jump\t// in\n    tag_286:\n        /* \"#utility.yul\":15802:15836   */\n      tag_119\n      jump\t// in\n    tag_285:\n        /* \"#utility.yul\":15784:15837   */\n      tag_80\n      jump\t// in\n    tag_284:\n        /* \"#utility.yul\":15771:15837   */\n      swap1\n      pop\n        /* \"#utility.yul\":15701:15843   */\n      swap2\n      swap1\n      pop\n      jump\t// out\n        /* \"#utility.yul\":15849:15924   */\n    tag_121:\n        /* \"#utility.yul\":15892:15895   */\n      0x00\n        /* \"#utility.yul\":15913:15918   */\n      dup2\n        /* \"#utility.yul\":15906:15918   */\n      swap1\n      pop\n        /* \"#utility.yul\":15849:15924   */\n      swap2\n      swap1\n      pop\n      jump\t// out\n        /* \"#utility.yul\":15930:16199   */\n    tag_122:\n        /* \"#utility.yul\":16040:16079   */\n      tag_289\n        /* \"#utility.yul\":16071:16078   */\n      dup4\n        /* \"#utility.yul\":16040:16079   */\n      tag_120\n      jump\t// in\n    tag_289:\n        /* \"#utility.yul\":16101:16192   */\n      tag_290\n        /* \"#utility.yul\":16150:16191   */\n      tag_291\n        /* \"#utility.yul\":16174:16190   */\n      dup3\n        /* \"#utility.yul\":16150:16191   */\n      tag_121\n      jump\t// in\n    tag_291:\n        /* \"#utility.yul\":16142:16148   */\n      dup5\n        /* \"#utility.yul\":16135:16139   */\n      dup5\n        /* \"#utility.yul\":16129:16140   */\n      sload\n        /* \"#utility.yul\":16101:16192   */\n      tag_118\n      jump\t// in\n    tag_290:\n        /* \"#utility.yul\":16095:16099   */\n      dup3\n        /* \"#utility.yul\":16088:16193   */\n      sstore\n        /* \"#utility.yul\":16006:16199   */\n      pop\n        /* \"#utility.yul\":15930:16199   */\n      pop\n      pop\n      pop\n      jump\t// out\n        /* \"#utility.yul\":16205:16278   */\n    tag_123:\n        /* \"#utility.yul\":16250:16253   */\n      0x00\n        /* \"#utility.yul\":16205:16278   */\n      swap1\n      jump\t// out\n        /* \"#utility.yul\":16284:16473   */\n    tag_124:\n        /* \"#utility.yul\":16361:16393   */\n      tag_294\n      tag_123\n      jump\t// in\n    tag_294:\n        /* \"#utility.yul\":16402:16467   */\n      tag_295\n        /* \"#utility.yul\":16460:16466   */\n      dup2\n        /* \"#utility.yul\":16452:16458   */\n      dup5\n        /* \"#utility.yul\":16446:16450   */\n      dup5\n        /* \"#utility.yul\":16402:16467   */\n      tag_122\n      jump\t// in\n    tag_295:\n        /* \"#utility.yul\":16337:16473   */\n      pop\n        /* \"#utility.yul\":16284:16473   */\n      pop\n      pop\n      jump\t// out\n        /* \"#utility.yul\":16479:16665   */\n    tag_125:\n        /* \"#utility.yul\":16539:16659   */\n    tag_297:\n        /* \"#utility.yul\":16556:16559   */\n      dup2\n        /* \"#utility.yul\":16549:16554   */\n      dup2\n        /* \"#utility.yul\":16546:16560   */\n      lt\n        /* \"#utility.yul\":16539:16659   */\n      iszero\n      tag_299\n      jumpi\n        /* \"#utility.yul\":16610:16649   */\n      tag_300\n        /* \"#utility.yul\":16647:16648   */\n      0x00\n        /* \"#utility.yul\":16640:16645   */\n      dup3\n        /* \"#utility.yul\":16610:16649   */\n      tag_124\n      jump\t// in\n    tag_300:\n        /* \"#utility.yul\":16583:16584   */\n      0x01\n        /* \"#utility.yul\":16576:16581   */\n      dup2\n        /* \"#utility.yul\":16572:16585   */\n      add\n        /* \"#utility.yul\":16563:16585   */\n      swap1\n      pop\n        /* \"#utility.yul\":16539:16659   */\n      jump(tag_297)\n    tag_299:\n        /* \"#utility.yul\":16479:16665   */\n      pop\n      pop\n      jump\t// out\n        /* \"#utility.yul\":16671:17214   */\n    tag_126:\n        /* \"#utility.yul\":16772:16774   */\n      0x1f\n        /* \"#utility.yul\":16767:16770   */\n      dup3\n        /* \"#utility.yul\":16764:16775   */\n      gt\n        /* \"#utility.yul\":16761:17207   */\n      iszero\n      tag_302\n      jumpi\n        /* \"#utility.yul\":16806:16844   */\n      tag_303\n        /* \"#utility.yul\":16838:16843   */\n      dup2\n        /* \"#utility.yul\":16806:16844   */\n      tag_115\n      jump\t// in\n    tag_303:\n        /* \"#utility.yul\":16890:16919   */\n      tag_304\n        /* \"#utility.yul\":16908:16918   */\n      dup5\n        /* \"#utility.yul\":16890:16919   */\n      tag_116\n      jump\t// in\n    tag_304:\n        /* \"#utility.yul\":16880:16888   */\n      dup2\n        /* \"#utility.yul\":16876:16920   */\n      add\n        /* \"#utility.yul\":17073:17075   */\n      0x20\n        /* \"#utility.yul\":17061:17071   */\n      dup6\n        /* \"#utility.yul\":17058:17076   */\n      lt\n        /* \"#utility.yul\":17055:17104   */\n      iszero\n      tag_305\n      jumpi\n        /* \"#utility.yul\":17094:17102   */\n      dup2\n        /* \"#utility.yul\":17079:17102   */\n      swap1\n      pop\n        /* \"#utility.yul\":17055:17104   */\n    tag_305:\n        /* \"#utility.yul\":17117:17197   */\n      tag_306\n        /* \"#utility.yul\":17173:17195   */\n      tag_307\n        /* \"#utility.yul\":17191:17194   */\n      dup6\n        /* \"#utility.yul\":17173:17195   */\n      tag_116\n      jump\t// in\n    tag_307:\n        /* \"#utility.yul\":17163:17171   */\n      dup4\n        /* \"#utility.yul\":17159:17196   */\n      add\n        /* \"#utility.yul\":17146:17157   */\n      dup3\n        /* \"#utility.yul\":17117:17197   */\n      tag_125\n      jump\t// in\n    tag_306:\n        /* \"#utility.yul\":16776:17207   */\n      pop\n      pop\n        /* \"#utility.yul\":16761:17207   */\n    tag_302:\n        /* \"#utility.yul\":16671:17214   */\n      pop\n      pop\n      pop\n      jump\t// out\n        /* \"#utility.yul\":17220:17337   */\n    tag_127:\n        /* \"#utility.yul\":17274:17282   */\n      0x00\n        /* \"#utility.yul\":17324:17329   */\n      dup3\n        /* \"#utility.yul\":17318:17322   */\n      dup3\n        /* \"#utility.yul\":17314:17330   */\n      shr\n        /* \"#utility.yul\":17293:17330   */\n      swap1\n      pop\n        /* \"#utility.yul\":17220:17337   */\n      swap3\n      swap2\n      pop\n      pop\n      jump\t// out\n        /* \"#utility.yul\":17343:17512   */\n    tag_128:\n        /* \"#utility.yul\":17387:17393   */\n      0x00\n        /* \"#utility.yul\":17420:17471   */\n      tag_310\n        /* \"#utility.yul\":17468:17469   */\n      0x00\n        /* \"#utility.yul\":17464:17470   */\n      not\n        /* \"#utility.yul\":17456:17461   */\n      dup5\n        /* \"#utility.yul\":17453:17454   */\n      0x08\n        /* \"#utility.yul\":17449:17462   */\n      mul\n        /* \"#utility.yul\":17420:17471   */\n      tag_127\n      jump\t// in\n    tag_310:\n        /* \"#utility.yul\":17416:17472   */\n      not\n        /* \"#utility.yul\":17501:17505   */\n      dup1\n        /* \"#utility.yul\":17495:17499   */\n      dup4\n        /* \"#utility.yul\":17491:17506   */\n      and\n        /* \"#utility.yul\":17481:17506   */\n      swap2\n      pop\n        /* \"#utility.yul\":17394:17512   */\n      pop\n        /* \"#utility.yul\":17343:17512   */\n      swap3\n      swap2\n      pop\n      pop\n      jump\t// out\n        /* \"#utility.yul\":17517:17812   */\n    tag_129:\n        /* \"#utility.yul\":17593:17597   */\n      0x00\n        /* \"#utility.yul\":17739:17768   */\n      tag_312\n        /* \"#utility.yul\":17764:17767   */\n      dup4\n        /* \"#utility.yul\":17758:17762   */\n      dup4\n        /* \"#utility.yul\":17739:17768   */\n      tag_128\n      jump\t// in\n    tag_312:\n        /* \"#utility.yul\":17731:17768   */\n      swap2\n      pop\n        /* \"#utility.yul\":17801:17804   */\n      dup3\n        /* \"#utility.yul\":17798:17799   */\n      0x02\n        /* \"#utility.yul\":17794:17805   */\n      mul\n        /* \"#utility.yul\":17788:17792   */\n      dup3\n        /* \"#utility.yul\":17785:17806   */\n      or\n        /* \"#utility.yul\":17777:17806   */\n      swap1\n      pop\n        /* \"#utility.yul\":17517:17812   */\n      swap3\n      swap2\n      pop\n      pop\n      jump\t// out\n        /* \"#utility.yul\":17817:19212   */\n    tag_66:\n        /* \"#utility.yul\":17934:17971   */\n      tag_314\n        /* \"#utility.yul\":17967:17970   */\n      dup3\n        /* \"#utility.yul\":17934:17971   */\n      tag_86\n      jump\t// in\n    tag_314:\n        /* \"#utility.yul\":18036:18054   */\n      0xffffffffffffffff\n        /* \"#utility.yul\":18028:18034   */\n      dup2\n        /* \"#utility.yul\":18025:18055   */\n      gt\n        /* \"#utility.yul\":18022:18078   */\n      iszero\n      tag_315\n      jumpi\n        /* \"#utility.yul\":18058:18076   */\n      tag_316\n      tag_96\n      jump\t// in\n    tag_316:\n        /* \"#utility.yul\":18022:18078   */\n    tag_315:\n        /* \"#utility.yul\":18102:18140   */\n      tag_317\n        /* \"#utility.yul\":18134:18138   */\n      dup3\n        /* \"#utility.yul\":18128:18139   */\n      sload\n        /* \"#utility.yul\":18102:18140   */\n      tag_36\n      jump\t// in\n    tag_317:\n        /* \"#utility.yul\":18187:18254   */\n      tag_318\n        /* \"#utility.yul\":18247:18253   */\n      dup3\n        /* \"#utility.yul\":18239:18245   */\n      dup3\n        /* \"#utility.yul\":18233:18237   */\n      dup6\n        /* \"#utility.yul\":18187:18254   */\n      tag_126\n      jump\t// in\n    tag_318:\n        /* \"#utility.yul\":18281:18282   */\n      0x00\n        /* \"#utility.yul\":18305:18309   */\n      0x20\n        /* \"#utility.yul\":18292:18309   */\n      swap1\n      pop\n        /* \"#utility.yul\":18337:18339   */\n      0x1f\n        /* \"#utility.yul\":18329:18335   */\n      dup4\n        /* \"#utility.yul\":18326:18340   */\n      gt\n        /* \"#utility.yul\":18354:18355   */\n      0x01\n        /* \"#utility.yul\":18349:18967   */\n      dup2\n      eq\n      tag_320\n      jumpi\n        /* \"#utility.yul\":19011:19012   */\n      0x00\n        /* \"#utility.yul\":19028:19034   */\n      dup5\n        /* \"#utility.yul\":19025:19102   */\n      iszero\n      tag_321\n      jumpi\n        /* \"#utility.yul\":19077:19086   */\n      dup3\n        /* \"#utility.yul\":19072:19075   */\n      dup8\n        /* \"#utility.yul\":19068:19087   */\n      add\n        /* \"#utility.yul\":19062:19088   */\n      mload\n        /* \"#utility.yul\":19053:19088   */\n      swap1\n      pop\n        /* \"#utility.yul\":19025:19102   */\n    tag_321:\n        /* \"#utility.yul\":19128:19195   */\n      tag_322\n        /* \"#utility.yul\":19188:19194   */\n      dup6\n        /* \"#utility.yul\":19181:19186   */\n      dup3\n        /* \"#utility.yul\":19128:19195   */\n      tag_129\n      jump\t// in\n    tag_322:\n        /* \"#utility.yul\":19122:19126   */\n      dup7\n        /* \"#utility.yul\":19115:19196   */\n      sstore\n        /* \"#utility.yul\":18984:19206   */\n      pop\n        /* \"#utility.yul\":18319:19206   */\n      jump(tag_319)\n        /* \"#utility.yul\":18349:18967   */\n    tag_320:\n        /* \"#utility.yul\":18401:18405   */\n      0x1f\n        /* \"#utility.yul\":18397:18406   */\n      not\n        /* \"#utility.yul\":18389:18395   */\n      dup5\n        /* \"#utility.yul\":18385:18407   */\n      and\n        /* \"#utility.yul\":18435:18472   */\n      tag_323\n        /* \"#utility.yul\":18467:18471   */\n      dup7\n        /* \"#utility.yul\":18435:18472   */\n      tag_115\n      jump\t// in\n    tag_323:\n        /* \"#utility.yul\":18494:18495   */\n      0x00\n        /* \"#utility.yul\":18508:18716   */\n    tag_324:\n        /* \"#utility.yul\":18522:18529   */\n      dup3\n        /* \"#utility.yul\":18519:18520   */\n      dup2\n        /* \"#utility.yul\":18516:18530   */\n      lt\n        /* \"#utility.yul\":18508:18716   */\n      iszero\n      tag_326\n      jumpi\n        /* \"#utility.yul\":18601:18610   */\n      dup5\n        /* \"#utility.yul\":18596:18599   */\n      dup10\n        /* \"#utility.yul\":18592:18611   */\n      add\n        /* \"#utility.yul\":18586:18612   */\n      mload\n        /* \"#utility.yul\":18578:18584   */\n      dup3\n        /* \"#utility.yul\":18571:18613   */\n      sstore\n        /* \"#utility.yul\":18652:18653   */\n      0x01\n        /* \"#utility.yul\":18644:18650   */\n      dup3\n        /* \"#utility.yul\":18640:18654   */\n      add\n        /* \"#utility.yul\":18630:18654   */\n      swap2\n      pop\n        /* \"#utility.yul\":18699:18701   */\n      0x20\n        /* \"#utility.yul\":18688:18697   */\n      dup6\n        /* \"#utility.yul\":18684:18702   */\n      add\n        /* \"#utility.yul\":18671:18702   */\n      swap5\n      pop\n        /* \"#utility.yul\":18545:18549   */\n      0x20\n        /* \"#utility.yul\":18542:18543   */\n      dup2\n        /* \"#utility.yul\":18538:18550   */\n      add\n        /* \"#utility.yul\":18533:18550   */\n      swap1\n      pop\n        /* \"#utility.yul\":18508:18716   */\n      jump(tag_324)\n    tag_326:\n        /* \"#utility.yul\":18744:18750   */\n      dup7\n        /* \"#utility.yul\":18735:18742   */\n      dup4\n        /* \"#utility.yul\":18732:18751   */\n      lt\n        /* \"#utility.yul\":18729:18908   */\n      iszero\n      tag_327\n      jumpi\n        /* \"#utility.yul\":18802:18811   */\n      dup5\n        /* \"#utility.yul\":18797:18800   */\n      dup10\n        /* \"#utility.yul\":18793:18812   */\n      add\n        /* \"#utility.yul\":18787:18813   */\n      mload\n        /* \"#utility.yul\":18845:18893   */\n      tag_328\n        /* \"#utility.yul\":18887:18891   */\n      0x1f\n        /* \"#utility.yul\":18879:18885   */\n      dup10\n        /* \"#utility.yul\":18875:18892   */\n      and\n        /* \"#utility.yul\":18864:18873   */\n      dup3\n        /* \"#utility.yul\":18845:18893   */\n      tag_128\n      jump\t// in\n    tag_328:\n        /* \"#utility.yul\":18837:18843   */\n      dup4\n        /* \"#utility.yul\":18830:18894   */\n      sstore\n        /* \"#utility.yul\":18752:18908   */\n      pop\n        /* \"#utility.yul\":18729:18908   */\n    tag_327:\n        /* \"#utility.yul\":18954:18955   */\n      0x01\n        /* \"#utility.yul\":18950:18951   */\n      0x02\n        /* \"#utility.yul\":18942:18948   */\n      dup9\n        /* \"#utility.yul\":18938:18952   */\n      mul\n        /* \"#utility.yul\":18934:18956   */\n      add\n        /* \"#utility.yul\":18928:18932   */\n      dup9\n        /* \"#utility.yul\":18921:18957   */\n      sstore\n        /* \"#utility.yul\":18356:18967   */\n      pop\n      pop\n      pop\n        /* \"#utility.yul\":18319:19206   */\n    tag_319:\n      pop\n        /* \"#utility.yul\":17909:19212   */\n      pop\n      pop\n      pop\n        /* \"#utility.yul\":17817:19212   */\n      pop\n      pop\n      jump\t// out\n        /* \"#utility.yul\":19218:19451   */\n    tag_68:\n        /* \"#utility.yul\":19257:19260   */\n      0x00\n        /* \"#utility.yul\":19280:19304   */\n      tag_330\n        /* \"#utility.yul\":19298:19303   */\n      dup3\n        /* \"#utility.yul\":19280:19304   */\n      tag_80\n      jump\t// in\n    tag_330:\n        /* \"#utility.yul\":19271:19304   */\n      swap2\n      pop\n        /* \"#utility.yul\":19326:19392   */\n      0xffffffffffffffffffffffffffffffffffffffffffffffffffffffffffffffff\n        /* \"#utility.yul\":19319:19324   */\n      dup3\n        /* \"#utility.yul\":19316:19393   */\n      sub\n        /* \"#utility.yul\":19313:19416   */\n      tag_331\n      jumpi\n        /* \"#utility.yul\":19396:19414   */\n      tag_332\n      tag_108\n      jump\t// in\n    tag_332:\n        /* \"#utility.yul\":19313:19416   */\n    tag_331:\n        /* \"#utility.yul\":19443:19444   */\n      0x01\n        /* \"#utility.yul\":19436:19441   */\n      dup3\n        /* \"#utility.yul\":19432:19445   */\n      add\n        /* \"#utility.yul\":19425:19445   */\n      swap1\n      pop\n        /* \"#utility.yul\":19218:19451   */\n      swap2\n      swap1\n      pop\n      jump\t// out\n\n    auxdata: 0xa2646970667358221220c492122692bb9491be60e5a0165466b1029b8634a47fa1313e7b78b87a25e90664736f6c634300081a0033\n}\n",
				"bytecode": {
					"linkReferences": {},
					"object": "6080604052348015600e575f80fd5b506111c88061001c5f395ff3fe608060405260043610610049575f3560e01c80630bb57dfd1461004d5780633856fa431461008e5780638627df46146100ca578063bd53316e146100e6578063f086a09b1461010e575b5f80fd5b348015610058575f80fd5b50610073600480360381019061006e9190610776565b610136565b6040516100859695949392919061085f565b60405180910390f35b348015610099575f80fd5b506100b460048036038101906100af91906108ef565b610212565b6040516100c1919061092d565b60405180910390f35b6100e460048036038101906100df9190610946565b610232565b005b3480156100f1575f80fd5b5061010c60048036038101906101079190610ab0565b6103ea565b005b348015610119575f80fd5b50610134600480360381019061012f9190610b30565b610567565b005b5f602052805f5260405f205f91509050805f015f9054906101000a900473ffffffffffffffffffffffffffffffffffffffff169080600101805461017990610bad565b80601f01602080910402602001604051908101604052809291908181526020018280546101a590610bad565b80156101f05780601f106101c7576101008083540402835291602001916101f0565b820191905f5260205f20905b8154815290600101906020018083116101d357829003601f168201915b5050505050908060020154908060030154908060040154908060050154905086565b6001602052815f5260405f20602052805f5260405f205f91509150505481565b5f805f8481526020019081526020015f206002015403610287576040517f08c379a000000000000000000000000000000000000000000000000000000000815260040161027e90610c27565b60405180910390fd5b425f808481526020019081526020015f2060020154116102dc576040517f08c379a00000000000000000000000000000000000000000000000000000000081526004016102d390610c8f565b60405180910390fd5b805f808481526020019081526020015f20600301546102fb9190610cda565b341461033c576040517f08c379a000000000000000000000000000000000000000000000000000000000815260040161033390610d65565b60405180910390fd5b805f808481526020019081526020015f2060050154101561035b575f80fd5b805f808481526020019081526020015f206005015f82825461037d9190610d83565b925050819055508060015f3373ffffffffffffffffffffffffffffffffffffffff1673ffffffffffffffffffffffffffffffffffffffff1681526020019081526020015f205f8481526020019081526020015f205f8282546103df9190610db6565b925050819055505050565b42831161042c576040517f08c379a000000000000000000000000000000000000000000000000000000000815260040161042390610e33565b60405180910390fd5b6002811015610470576040517f08c379a000000000000000000000000000000000000000000000000000000000815260040161046790610ec1565b60405180910390fd5b6040518060c001604052803373ffffffffffffffffffffffffffffffffffffffff168152602001858152602001848152602001838152602001828152602001828152505f8060025481526020019081526020015f205f820151815f015f6101000a81548173ffffffffffffffffffffffffffffffffffffffff021916908373ffffffffffffffffffffffffffffffffffffffff160217905550602082015181600101908161051e919061107c565b5060408201518160020155606082015181600301556080820151816004015560a0820151816005015590505060025f81548092919061055c9061114b565b919050555050505050565b5f805f8581526020019081526020015f2060020154036105bc576040517f08c379a00000000000000000000000000000000000000000000000000000000081526004016105b390610c27565b60405180910390fd5b425f808581526020019081526020015f206002015411610611576040517f08c379a000000000000000000000000000000000000000000000000000000000815260040161060890610c8f565b60405180910390fd5b8160015f3373ffffffffffffffffffffffffffffffffffffffff1673ffffffffffffffffffffffffffffffffffffffff1681526020019081526020015f205f8581526020019081526020015f20541015610669575f80fd5b8160015f3373ffffffffffffffffffffffffffffffffffffffff1673ffffffffffffffffffffffffffffffffffffffff1681526020019081526020015f205f8581526020019081526020015f205f8282546106c49190610d83565b925050819055508160015f8373ffffffffffffffffffffffffffffffffffffffff1673ffffffffffffffffffffffffffffffffffffffff1681526020019081526020015f205f8581526020019081526020015f205f8282546107269190610db6565b92505081905550505050565b5f604051905090565b5f80fd5b5f80fd5b5f819050919050565b61075581610743565b811461075f575f80fd5b50565b5f813590506107708161074c565b92915050565b5f6020828403121561078b5761078a61073b565b5b5f61079884828501610762565b91505092915050565b5f73ffffffffffffffffffffffffffffffffffffffff82169050919050565b5f6107ca826107a1565b9050919050565b6107da816107c0565b82525050565b5f81519050919050565b5f82825260208201905092915050565b8281835e5f83830152505050565b5f601f19601f8301169050919050565b5f610822826107e0565b61082c81856107ea565b935061083c8185602086016107fa565b61084581610808565b840191505092915050565b61085981610743565b82525050565b5f60c0820190506108725f8301896107d1565b81810360208301526108848188610818565b90506108936040830187610850565b6108a06060830186610850565b6108ad6080830185610850565b6108ba60a0830184610850565b979650505050505050565b6108ce816107c0565b81146108d8575f80fd5b50565b5f813590506108e9816108c5565b92915050565b5f80604083850312156109055761090461073b565b5b5f610912858286016108db565b925050602061092385828601610762565b9150509250929050565b5f6020820190506109405f830184610850565b92915050565b5f806040838503121561095c5761095b61073b565b5b5f61096985828601610762565b925050602061097a85828601610762565b9150509250929050565b5f80fd5b5f80fd5b7f4e487b71000000000000000000000000000000000000000000000000000000005f52604160045260245ffd5b6109c282610808565b810181811067ffffffffffffffff821117156109e1576109e061098c565b5b80604052505050565b5f6109f3610732565b90506109ff82826109b9565b919050565b5f67ffffffffffffffff821115610a1e57610a1d61098c565b5b610a2782610808565b9050602081019050919050565b828183375f83830152505050565b5f610a54610a4f84610a04565b6109ea565b905082815260208101848484011115610a7057610a6f610988565b5b610a7b848285610a34565b509392505050565b5f82601f830112610a9757610a96610984565b5b8135610aa7848260208601610a42565b91505092915050565b5f805f8060808587031215610ac857610ac761073b565b5b5f85013567ffffffffffffffff811115610ae557610ae461073f565b5b610af187828801610a83565b9450506020610b0287828801610762565b9350506040610b1387828801610762565b9250506060610b2487828801610762565b91505092959194509250565b5f805f60608486031215610b4757610b4661073b565b5b5f610b5486828701610762565b9350506020610b6586828701610762565b9250506040610b76868287016108db565b9150509250925092565b7f4e487b71000000000000000000000000000000000000000000000000000000005f52602260045260245ffd5b5f6002820490506001821680610bc457607f821691505b602082108103610bd757610bd6610b80565b5b50919050565b7f6576656e7420646f6573204e6f742045786973740000000000000000000000005f82015250565b5f610c116014836107ea565b9150610c1c82610bdd565b602082019050919050565b5f6020820190508181035f830152610c3e81610c05565b9050919050565b7f6576656e7420616c7265616479206f63637572656400000000000000000000005f82015250565b5f610c796015836107ea565b9150610c8482610c45565b602082019050919050565b5f6020820190508181035f830152610ca681610c6d565b9050919050565b7f4e487b71000000000000000000000000000000000000000000000000000000005f52601160045260245ffd5b5f610ce482610743565b9150610cef83610743565b9250828202610cfd81610743565b91508282048414831517610d1457610d13610cad565b5b5092915050565b7f4574686572206973206e6f7420656e6f756768000000000000000000000000005f82015250565b5f610d4f6013836107ea565b9150610d5a82610d1b565b602082019050919050565b5f6020820190508181035f830152610d7c81610d43565b9050919050565b5f610d8d82610743565b9150610d9883610743565b9250828203905081811115610db057610daf610cad565b5b92915050565b5f610dc082610743565b9150610dcb83610743565b9250828201905080821115610de357610de2610cad565b5b92915050565b7f637265617465206576656e7420666f72206675747572650000000000000000005f82015250565b5f610e1d6017836107ea565b9150610e2882610de9565b602082019050919050565b5f6020820190508181035f830152610e4a81610e11565b9050919050565b7f637265617465206576656e7420666f72206d6f7265207468616e20322070656f5f8201527f706c657300000000000000000000000000000000000000000000000000000000602082015250565b5f610eab6024836107ea565b9150610eb682610e51565b604082019050919050565b5f6020820190508181035f830152610ed881610e9f565b9050919050565b5f819050815f5260205f209050919050565b5f6020601f8301049050919050565b5f82821b905092915050565b5f60088302610f3b7fffffffffffffffffffffffffffffffffffffffffffffffffffffffffffffffff82610f00565b610f458683610f00565b95508019841693508086168417925050509392505050565b5f819050919050565b5f610f80610f7b610f7684610743565b610f5d565b610743565b9050919050565b5f819050919050565b610f9983610f66565b610fad610fa582610f87565b848454610f0c565b825550505050565b5f90565b610fc1610fb5565b610fcc818484610f90565b505050565b5b81811015610fef57610fe45f82610fb9565b600181019050610fd2565b5050565b601f8211156110345761100581610edf565b61100e84610ef1565b8101602085101561101d578190505b61103161102985610ef1565b830182610fd1565b50505b505050565b5f82821c905092915050565b5f6110545f1984600802611039565b1980831691505092915050565b5f61106c8383611045565b9150826002028217905092915050565b611085826107e0565b67ffffffffffffffff81111561109e5761109d61098c565b5b6110a88254610bad565b6110b3828285610ff3565b5f60209050601f8311600181146110e4575f84156110d2578287015190505b6110dc8582611061565b865550611143565b601f1984166110f286610edf565b5f5b82811015611119578489015182556001820191506020850194506020810190506110f4565b868310156111365784890151611132601f891682611045565b8355505b6001600288020188555050505b505050505050565b5f61115582610743565b91507fffffffffffffffffffffffffffffffffffffffffffffffffffffffffffffffff820361118757611186610cad565b5b60018201905091905056fea2646970667358221220c492122692bb9491be60e5a0165466b1029b8634a47fa1313e7b78b87a25e90664736f6c634300081a0033",
					"opcodes": "PUSH1 0x80 PUSH1 0x40 MSTORE CALLVALUE DUP1 ISZERO PUSH1 0xE JUMPI PUSH0 DUP1 REVERT JUMPDEST POP PUSH2 0x11C8 DUP1 PUSH2 0x1C PUSH0 CODECOPY PUSH0 RETURN INVALID PUSH1 0x80 PUSH1 0x40 MSTORE PUSH1 0x4 CALLDATASIZE LT PUSH2 0x49 JUMPI PUSH0 CALLDATALOAD PUSH1 0xE0 SHR DUP1 PUSH4 0xBB57DFD EQ PUSH2 0x4D JUMPI DUP1 PUSH4 0x3856FA43 EQ PUSH2 0x8E JUMPI DUP1 PUSH4 0x8627DF46 EQ PUSH2 0xCA JUMPI DUP1 PUSH4 0xBD53316E EQ PUSH2 0xE6 JUMPI DUP1 PUSH4 0xF086A09B EQ PUSH2 0x10E JUMPI JUMPDEST PUSH0 DUP1 REVERT JUMPDEST CALLVALUE DUP1 ISZERO PUSH2 0x58 JUMPI PUSH0 DUP1 REVERT JUMPDEST POP PUSH2 0x73 PUSH1 0x4 DUP1 CALLDATASIZE SUB DUP2 ADD SWAP1 PUSH2 0x6E SWAP2 SWAP1 PUSH2 0x776 JUMP JUMPDEST PUSH2 0x136 JUMP JUMPDEST PUSH1 0x40 MLOAD PUSH2 0x85 SWAP7 SWAP6 SWAP5 SWAP4 SWAP3 SWAP2 SWAP1 PUSH2 0x85F JUMP JUMPDEST PUSH1 0x40 MLOAD DUP1 SWAP2 SUB SWAP1 RETURN JUMPDEST CALLVALUE DUP1 ISZERO PUSH2 0x99 JUMPI PUSH0 DUP1 REVERT JUMPDEST POP PUSH2 0xB4 PUSH1 0x4 DUP1 CALLDATASIZE SUB DUP2 ADD SWAP1 PUSH2 0xAF SWAP2 SWAP1 PUSH2 0x8EF JUMP JUMPDEST PUSH2 0x212 JUMP JUMPDEST PUSH1 0x40 MLOAD PUSH2 0xC1 SWAP2 SWAP1 PUSH2 0x92D JUMP JUMPDEST PUSH1 0x40 MLOAD DUP1 SWAP2 SUB SWAP1 RETURN JUMPDEST PUSH2 0xE4 PUSH1 0x4 DUP1 CALLDATASIZE SUB DUP2 ADD SWAP1 PUSH2 0xDF SWAP2 SWAP1 PUSH2 0x946 JUMP JUMPDEST PUSH2 0x232 JUMP JUMPDEST STOP JUMPDEST CALLVALUE DUP1 ISZERO PUSH2 0xF1 JUMPI PUSH0 DUP1 REVERT JUMPDEST POP PUSH2 0x10C PUSH1 0x4 DUP1 CALLDATASIZE SUB DUP2 ADD SWAP1 PUSH2 0x107 SWAP2 SWAP1 PUSH2 0xAB0 JUMP JUMPDEST PUSH2 0x3EA JUMP JUMPDEST STOP JUMPDEST CALLVALUE DUP1 ISZERO PUSH2 0x119 JUMPI PUSH0 DUP1 REVERT JUMPDEST POP PUSH2 0x134 PUSH1 0x4 DUP1 CALLDATASIZE SUB DUP2 ADD SWAP1 PUSH2 0x12F SWAP2 SWAP1 PUSH2 0xB30 JUMP JUMPDEST PUSH2 0x567 JUMP JUMPDEST STOP JUMPDEST PUSH0 PUSH1 0x20 MSTORE DUP1 PUSH0 MSTORE PUSH1 0x40 PUSH0 KECCAK256 PUSH0 SWAP2 POP SWAP1 POP DUP1 PUSH0 ADD PUSH0 SWAP1 SLOAD SWAP1 PUSH2 0x100 EXP SWAP1 DIV PUSH20 0xFFFFFFFFFFFFFFFFFFFFFFFFFFFFFFFFFFFFFFFF AND SWAP1 DUP1 PUSH1 0x1 ADD DUP1 SLOAD PUSH2 0x179 SWAP1 PUSH2 0xBAD JUMP JUMPDEST DUP1 PUSH1 0x1F ADD PUSH1 0x20 DUP1 SWAP2 DIV MUL PUSH1 0x20 ADD PUSH1 0x40 MLOAD SWAP1 DUP2 ADD PUSH1 0x40 MSTORE DUP1 SWAP3 SWAP2 SWAP1 DUP2 DUP2 MSTORE PUSH1 0x20 ADD DUP3 DUP1 SLOAD PUSH2 0x1A5 SWAP1 PUSH2 0xBAD JUMP JUMPDEST DUP1 ISZERO PUSH2 0x1F0 JUMPI DUP1 PUSH1 0x1F LT PUSH2 0x1C7 JUMPI PUSH2 0x100 DUP1 DUP4 SLOAD DIV MUL DUP4 MSTORE SWAP2 PUSH1 0x20 ADD SWAP2 PUSH2 0x1F0 JUMP JUMPDEST DUP3 ADD SWAP2 SWAP1 PUSH0 MSTORE PUSH1 0x20 PUSH0 KECCAK256 SWAP1 JUMPDEST DUP2 SLOAD DUP2 MSTORE SWAP1 PUSH1 0x1 ADD SWAP1 PUSH1 0x20 ADD DUP1 DUP4 GT PUSH2 0x1D3 JUMPI DUP3 SWAP1 SUB PUSH1 0x1F AND DUP3 ADD SWAP2 JUMPDEST POP POP POP POP POP SWAP1 DUP1 PUSH1 0x2 ADD SLOAD SWAP1 DUP1 PUSH1 0x3 ADD SLOAD SWAP1 DUP1 PUSH1 0x4 ADD SLOAD SWAP1 DUP1 PUSH1 0x5 ADD SLOAD SWAP1 POP DUP7 JUMP JUMPDEST PUSH1 0x1 PUSH1 0x20 MSTORE DUP2 PUSH0 MSTORE PUSH1 0x40 PUSH0 KECCAK256 PUSH1 0x20 MSTORE DUP1 PUSH0 MSTORE PUSH1 0x40 PUSH0 KECCAK256 PUSH0 SWAP2 POP SWAP2 POP POP SLOAD DUP2 JUMP JUMPDEST PUSH0 DUP1 PUSH0 DUP5 DUP2 MSTORE PUSH1 0x20 ADD SWAP1 DUP2 MSTORE PUSH1 0x20 ADD PUSH0 KECCAK256 PUSH1 0x2 ADD SLOAD SUB PUSH2 0x287 JUMPI PUSH1 0x40 MLOAD PUSH32 0x8C379A000000000000000000000000000000000000000000000000000000000 DUP2 MSTORE PUSH1 0x4 ADD PUSH2 0x27E SWAP1 PUSH2 0xC27 JUMP JUMPDEST PUSH1 0x40 MLOAD DUP1 SWAP2 SUB SWAP1 REVERT JUMPDEST TIMESTAMP PUSH0 DUP1 DUP5 DUP2 MSTORE PUSH1 0x20 ADD SWAP1 DUP2 MSTORE PUSH1 0x20 ADD PUSH0 KECCAK256 PUSH1 0x2 ADD SLOAD GT PUSH2 0x2DC JUMPI PUSH1 0x40 MLOAD PUSH32 0x8C379A000000000000000000000000000000000000000000000000000000000 DUP2 MSTORE PUSH1 0x4 ADD PUSH2 0x2D3 SWAP1 PUSH2 0xC8F JUMP JUMPDEST PUSH1 0x40 MLOAD DUP1 SWAP2 SUB SWAP1 REVERT JUMPDEST DUP1 PUSH0 DUP1 DUP5 DUP2 MSTORE PUSH1 0x20 ADD SWAP1 DUP2 MSTORE PUSH1 0x20 ADD PUSH0 KECCAK256 PUSH1 0x3 ADD SLOAD PUSH2 0x2FB SWAP2 SWAP1 PUSH2 0xCDA JUMP JUMPDEST CALLVALUE EQ PUSH2 0x33C JUMPI PUSH1 0x40 MLOAD PUSH32 0x8C379A000000000000000000000000000000000000000000000000000000000 DUP2 MSTORE PUSH1 0x4 ADD PUSH2 0x333 SWAP1 PUSH2 0xD65 JUMP JUMPDEST PUSH1 0x40 MLOAD DUP1 SWAP2 SUB SWAP1 REVERT JUMPDEST DUP1 PUSH0 DUP1 DUP5 DUP2 MSTORE PUSH1 0x20 ADD SWAP1 DUP2 MSTORE PUSH1 0x20 ADD PUSH0 KECCAK256 PUSH1 0x5 ADD SLOAD LT ISZERO PUSH2 0x35B JUMPI PUSH0 DUP1 REVERT JUMPDEST DUP1 PUSH0 DUP1 DUP5 DUP2 MSTORE PUSH1 0x20 ADD SWAP1 DUP2 MSTORE PUSH1 0x20 ADD PUSH0 KECCAK256 PUSH1 0x5 ADD PUSH0 DUP3 DUP3 SLOAD PUSH2 0x37D SWAP2 SWAP1 PUSH2 0xD83 JUMP JUMPDEST SWAP3 POP POP DUP2 SWAP1 SSTORE POP DUP1 PUSH1 0x1 PUSH0 CALLER PUSH20 0xFFFFFFFFFFFFFFFFFFFFFFFFFFFFFFFFFFFFFFFF AND PUSH20 0xFFFFFFFFFFFFFFFFFFFFFFFFFFFFFFFFFFFFFFFF AND DUP2 MSTORE PUSH1 0x20 ADD SWAP1 DUP2 MSTORE PUSH1 0x20 ADD PUSH0 KECCAK256 PUSH0 DUP5 DUP2 MSTORE PUSH1 0x20 ADD SWAP1 DUP2 MSTORE PUSH1 0x20 ADD PUSH0 KECCAK256 PUSH0 DUP3 DUP3 SLOAD PUSH2 0x3DF SWAP2 SWAP1 PUSH2 0xDB6 JUMP JUMPDEST SWAP3 POP POP DUP2 SWAP1 SSTORE POP POP POP JUMP JUMPDEST TIMESTAMP DUP4 GT PUSH2 0x42C JUMPI PUSH1 0x40 MLOAD PUSH32 0x8C379A000000000000000000000000000000000000000000000000000000000 DUP2 MSTORE PUSH1 0x4 ADD PUSH2 0x423 SWAP1 PUSH2 0xE33 JUMP JUMPDEST PUSH1 0x40 MLOAD DUP1 SWAP2 SUB SWAP1 REVERT JUMPDEST PUSH1 0x2 DUP2 LT ISZERO PUSH2 0x470 JUMPI PUSH1 0x40 MLOAD PUSH32 0x8C379A000000000000000000000000000000000000000000000000000000000 DUP2 MSTORE PUSH1 0x4 ADD PUSH2 0x467 SWAP1 PUSH2 0xEC1 JUMP JUMPDEST PUSH1 0x40 MLOAD DUP1 SWAP2 SUB SWAP1 REVERT JUMPDEST PUSH1 0x40 MLOAD DUP1 PUSH1 0xC0 ADD PUSH1 0x40 MSTORE DUP1 CALLER PUSH20 0xFFFFFFFFFFFFFFFFFFFFFFFFFFFFFFFFFFFFFFFF AND DUP2 MSTORE PUSH1 0x20 ADD DUP6 DUP2 MSTORE PUSH1 0x20 ADD DUP5 DUP2 MSTORE PUSH1 0x20 ADD DUP4 DUP2 MSTORE PUSH1 0x20 ADD DUP3 DUP2 MSTORE PUSH1 0x20 ADD DUP3 DUP2 MSTORE POP PUSH0 DUP1 PUSH1 0x2 SLOAD DUP2 MSTORE PUSH1 0x20 ADD SWAP1 DUP2 MSTORE PUSH1 0x20 ADD PUSH0 KECCAK256 PUSH0 DUP3 ADD MLOAD DUP2 PUSH0 ADD PUSH0 PUSH2 0x100 EXP DUP2 SLOAD DUP2 PUSH20 0xFFFFFFFFFFFFFFFFFFFFFFFFFFFFFFFFFFFFFFFF MUL NOT AND SWAP1 DUP4 PUSH20 0xFFFFFFFFFFFFFFFFFFFFFFFFFFFFFFFFFFFFFFFF AND MUL OR SWAP1 SSTORE POP PUSH1 0x20 DUP3 ADD MLOAD DUP2 PUSH1 0x1 ADD SWAP1 DUP2 PUSH2 0x51E SWAP2 SWAP1 PUSH2 0x107C JUMP JUMPDEST POP PUSH1 0x40 DUP3 ADD MLOAD DUP2 PUSH1 0x2 ADD SSTORE PUSH1 0x60 DUP3 ADD MLOAD DUP2 PUSH1 0x3 ADD SSTORE PUSH1 0x80 DUP3 ADD MLOAD DUP2 PUSH1 0x4 ADD SSTORE PUSH1 0xA0 DUP3 ADD MLOAD DUP2 PUSH1 0x5 ADD SSTORE SWAP1 POP POP PUSH1 0x2 PUSH0 DUP2 SLOAD DUP1 SWAP3 SWAP2 SWAP1 PUSH2 0x55C SWAP1 PUSH2 0x114B JUMP JUMPDEST SWAP2 SWAP1 POP SSTORE POP POP POP POP POP JUMP JUMPDEST PUSH0 DUP1 PUSH0 DUP6 DUP2 MSTORE PUSH1 0x20 ADD SWAP1 DUP2 MSTORE PUSH1 0x20 ADD PUSH0 KECCAK256 PUSH1 0x2 ADD SLOAD SUB PUSH2 0x5BC JUMPI PUSH1 0x40 MLOAD PUSH32 0x8C379A000000000000000000000000000000000000000000000000000000000 DUP2 MSTORE PUSH1 0x4 ADD PUSH2 0x5B3 SWAP1 PUSH2 0xC27 JUMP JUMPDEST PUSH1 0x40 MLOAD DUP1 SWAP2 SUB SWAP1 REVERT JUMPDEST TIMESTAMP PUSH0 DUP1 DUP6 DUP2 MSTORE PUSH1 0x20 ADD SWAP1 DUP2 MSTORE PUSH1 0x20 ADD PUSH0 KECCAK256 PUSH1 0x2 ADD SLOAD GT PUSH2 0x611 JUMPI PUSH1 0x40 MLOAD PUSH32 0x8C379A000000000000000000000000000000000000000000000000000000000 DUP2 MSTORE PUSH1 0x4 ADD PUSH2 0x608 SWAP1 PUSH2 0xC8F JUMP JUMPDEST PUSH1 0x40 MLOAD DUP1 SWAP2 SUB SWAP1 REVERT JUMPDEST DUP2 PUSH1 0x1 PUSH0 CALLER PUSH20 0xFFFFFFFFFFFFFFFFFFFFFFFFFFFFFFFFFFFFFFFF AND PUSH20 0xFFFFFFFFFFFFFFFFFFFFFFFFFFFFFFFFFFFFFFFF AND DUP2 MSTORE PUSH1 0x20 ADD SWAP1 DUP2 MSTORE PUSH1 0x20 ADD PUSH0 KECCAK256 PUSH0 DUP6 DUP2 MSTORE PUSH1 0x20 ADD SWAP1 DUP2 MSTORE PUSH1 0x20 ADD PUSH0 KECCAK256 SLOAD LT ISZERO PUSH2 0x669 JUMPI PUSH0 DUP1 REVERT JUMPDEST DUP2 PUSH1 0x1 PUSH0 CALLER PUSH20 0xFFFFFFFFFFFFFFFFFFFFFFFFFFFFFFFFFFFFFFFF AND PUSH20 0xFFFFFFFFFFFFFFFFFFFFFFFFFFFFFFFFFFFFFFFF AND DUP2 MSTORE PUSH1 0x20 ADD SWAP1 DUP2 MSTORE PUSH1 0x20 ADD PUSH0 KECCAK256 PUSH0 DUP6 DUP2 MSTORE PUSH1 0x20 ADD SWAP1 DUP2 MSTORE PUSH1 0x20 ADD PUSH0 KECCAK256 PUSH0 DUP3 DUP3 SLOAD PUSH2 0x6C4 SWAP2 SWAP1 PUSH2 0xD83 JUMP JUMPDEST SWAP3 POP POP DUP2 SWAP1 SSTORE POP DUP2 PUSH1 0x1 PUSH0 DUP4 PUSH20 0xFFFFFFFFFFFFFFFFFFFFFFFFFFFFFFFFFFFFFFFF AND PUSH20 0xFFFFFFFFFFFFFFFFFFFFFFFFFFFFFFFFFFFFFFFF AND DUP2 MSTORE PUSH1 0x20 ADD SWAP1 DUP2 MSTORE PUSH1 0x20 ADD PUSH0 KECCAK256 PUSH0 DUP6 DUP2 MSTORE PUSH1 0x20 ADD SWAP1 DUP2 MSTORE PUSH1 0x20 ADD PUSH0 KECCAK256 PUSH0 DUP3 DUP3 SLOAD PUSH2 0x726 SWAP2 SWAP1 PUSH2 0xDB6 JUMP JUMPDEST SWAP3 POP POP DUP2 SWAP1 SSTORE POP POP POP POP JUMP JUMPDEST PUSH0 PUSH1 0x40 MLOAD SWAP1 POP SWAP1 JUMP JUMPDEST PUSH0 DUP1 REVERT JUMPDEST PUSH0 DUP1 REVERT JUMPDEST PUSH0 DUP2 SWAP1 POP SWAP2 SWAP1 POP JUMP JUMPDEST PUSH2 0x755 DUP2 PUSH2 0x743 JUMP JUMPDEST DUP2 EQ PUSH2 0x75F JUMPI PUSH0 DUP1 REVERT JUMPDEST POP JUMP JUMPDEST PUSH0 DUP2 CALLDATALOAD SWAP1 POP PUSH2 0x770 DUP2 PUSH2 0x74C JUMP JUMPDEST SWAP3 SWAP2 POP POP JUMP JUMPDEST PUSH0 PUSH1 0x20 DUP3 DUP5 SUB SLT ISZERO PUSH2 0x78B JUMPI PUSH2 0x78A PUSH2 0x73B JUMP JUMPDEST JUMPDEST PUSH0 PUSH2 0x798 DUP5 DUP3 DUP6 ADD PUSH2 0x762 JUMP JUMPDEST SWAP2 POP POP SWAP3 SWAP2 POP POP JUMP JUMPDEST PUSH0 PUSH20 0xFFFFFFFFFFFFFFFFFFFFFFFFFFFFFFFFFFFFFFFF DUP3 AND SWAP1 POP SWAP2 SWAP1 POP JUMP JUMPDEST PUSH0 PUSH2 0x7CA DUP3 PUSH2 0x7A1 JUMP JUMPDEST SWAP1 POP SWAP2 SWAP1 POP JUMP JUMPDEST PUSH2 0x7DA DUP2 PUSH2 0x7C0 JUMP JUMPDEST DUP3 MSTORE POP POP JUMP JUMPDEST PUSH0 DUP2 MLOAD SWAP1 POP SWAP2 SWAP1 POP JUMP JUMPDEST PUSH0 DUP3 DUP3 MSTORE PUSH1 0x20 DUP3 ADD SWAP1 POP SWAP3 SWAP2 POP POP JUMP JUMPDEST DUP3 DUP2 DUP4 MCOPY PUSH0 DUP4 DUP4 ADD MSTORE POP POP POP JUMP JUMPDEST PUSH0 PUSH1 0x1F NOT PUSH1 0x1F DUP4 ADD AND SWAP1 POP SWAP2 SWAP1 POP JUMP JUMPDEST PUSH0 PUSH2 0x822 DUP3 PUSH2 0x7E0 JUMP JUMPDEST PUSH2 0x82C DUP2 DUP6 PUSH2 0x7EA JUMP JUMPDEST SWAP4 POP PUSH2 0x83C DUP2 DUP6 PUSH1 0x20 DUP7 ADD PUSH2 0x7FA JUMP JUMPDEST PUSH2 0x845 DUP2 PUSH2 0x808 JUMP JUMPDEST DUP5 ADD SWAP2 POP POP SWAP3 SWAP2 POP POP JUMP JUMPDEST PUSH2 0x859 DUP2 PUSH2 0x743 JUMP JUMPDEST DUP3 MSTORE POP POP JUMP JUMPDEST PUSH0 PUSH1 0xC0 DUP3 ADD SWAP1 POP PUSH2 0x872 PUSH0 DUP4 ADD DUP10 PUSH2 0x7D1 JUMP JUMPDEST DUP2 DUP2 SUB PUSH1 0x20 DUP4 ADD MSTORE PUSH2 0x884 DUP2 DUP9 PUSH2 0x818 JUMP JUMPDEST SWAP1 POP PUSH2 0x893 PUSH1 0x40 DUP4 ADD DUP8 PUSH2 0x850 JUMP JUMPDEST PUSH2 0x8A0 PUSH1 0x60 DUP4 ADD DUP7 PUSH2 0x850 JUMP JUMPDEST PUSH2 0x8AD PUSH1 0x80 DUP4 ADD DUP6 PUSH2 0x850 JUMP JUMPDEST PUSH2 0x8BA PUSH1 0xA0 DUP4 ADD DUP5 PUSH2 0x850 JUMP JUMPDEST SWAP8 SWAP7 POP POP POP POP POP POP POP JUMP JUMPDEST PUSH2 0x8CE DUP2 PUSH2 0x7C0 JUMP JUMPDEST DUP2 EQ PUSH2 0x8D8 JUMPI PUSH0 DUP1 REVERT JUMPDEST POP JUMP JUMPDEST PUSH0 DUP2 CALLDATALOAD SWAP1 POP PUSH2 0x8E9 DUP2 PUSH2 0x8C5 JUMP JUMPDEST SWAP3 SWAP2 POP POP JUMP JUMPDEST PUSH0 DUP1 PUSH1 0x40 DUP4 DUP6 SUB SLT ISZERO PUSH2 0x905 JUMPI PUSH2 0x904 PUSH2 0x73B JUMP JUMPDEST JUMPDEST PUSH0 PUSH2 0x912 DUP6 DUP3 DUP7 ADD PUSH2 0x8DB JUMP JUMPDEST SWAP3 POP POP PUSH1 0x20 PUSH2 0x923 DUP6 DUP3 DUP7 ADD PUSH2 0x762 JUMP JUMPDEST SWAP2 POP POP SWAP3 POP SWAP3 SWAP1 POP JUMP JUMPDEST PUSH0 PUSH1 0x20 DUP3 ADD SWAP1 POP PUSH2 0x940 PUSH0 DUP4 ADD DUP5 PUSH2 0x850 JUMP JUMPDEST SWAP3 SWAP2 POP POP JUMP JUMPDEST PUSH0 DUP1 PUSH1 0x40 DUP4 DUP6 SUB SLT ISZERO PUSH2 0x95C JUMPI PUSH2 0x95B PUSH2 0x73B JUMP JUMPDEST JUMPDEST PUSH0 PUSH2 0x969 DUP6 DUP3 DUP7 ADD PUSH2 0x762 JUMP JUMPDEST SWAP3 POP POP PUSH1 0x20 PUSH2 0x97A DUP6 DUP3 DUP7 ADD PUSH2 0x762 JUMP JUMPDEST SWAP2 POP POP SWAP3 POP SWAP3 SWAP1 POP JUMP JUMPDEST PUSH0 DUP1 REVERT JUMPDEST PUSH0 DUP1 REVERT JUMPDEST PUSH32 0x4E487B7100000000000000000000000000000000000000000000000000000000 PUSH0 MSTORE PUSH1 0x41 PUSH1 0x4 MSTORE PUSH1 0x24 PUSH0 REVERT JUMPDEST PUSH2 0x9C2 DUP3 PUSH2 0x808 JUMP JUMPDEST DUP2 ADD DUP2 DUP2 LT PUSH8 0xFFFFFFFFFFFFFFFF DUP3 GT OR ISZERO PUSH2 0x9E1 JUMPI PUSH2 0x9E0 PUSH2 0x98C JUMP JUMPDEST JUMPDEST DUP1 PUSH1 0x40 MSTORE POP POP POP JUMP JUMPDEST PUSH0 PUSH2 0x9F3 PUSH2 0x732 JUMP JUMPDEST SWAP1 POP PUSH2 0x9FF DUP3 DUP3 PUSH2 0x9B9 JUMP JUMPDEST SWAP2 SWAP1 POP JUMP JUMPDEST PUSH0 PUSH8 0xFFFFFFFFFFFFFFFF DUP3 GT ISZERO PUSH2 0xA1E JUMPI PUSH2 0xA1D PUSH2 0x98C JUMP JUMPDEST JUMPDEST PUSH2 0xA27 DUP3 PUSH2 0x808 JUMP JUMPDEST SWAP1 POP PUSH1 0x20 DUP2 ADD SWAP1 POP SWAP2 SWAP1 POP JUMP JUMPDEST DUP3 DUP2 DUP4 CALLDATACOPY PUSH0 DUP4 DUP4 ADD MSTORE POP POP POP JUMP JUMPDEST PUSH0 PUSH2 0xA54 PUSH2 0xA4F DUP5 PUSH2 0xA04 JUMP JUMPDEST PUSH2 0x9EA JUMP JUMPDEST SWAP1 POP DUP3 DUP2 MSTORE PUSH1 0x20 DUP2 ADD DUP5 DUP5 DUP5 ADD GT ISZERO PUSH2 0xA70 JUMPI PUSH2 0xA6F PUSH2 0x988 JUMP JUMPDEST JUMPDEST PUSH2 0xA7B DUP5 DUP3 DUP6 PUSH2 0xA34 JUMP JUMPDEST POP SWAP4 SWAP3 POP POP POP JUMP JUMPDEST PUSH0 DUP3 PUSH1 0x1F DUP4 ADD SLT PUSH2 0xA97 JUMPI PUSH2 0xA96 PUSH2 0x984 JUMP JUMPDEST JUMPDEST DUP2 CALLDATALOAD PUSH2 0xAA7 DUP5 DUP3 PUSH1 0x20 DUP7 ADD PUSH2 0xA42 JUMP JUMPDEST SWAP2 POP POP SWAP3 SWAP2 POP POP JUMP JUMPDEST PUSH0 DUP1 PUSH0 DUP1 PUSH1 0x80 DUP6 DUP8 SUB SLT ISZERO PUSH2 0xAC8 JUMPI PUSH2 0xAC7 PUSH2 0x73B JUMP JUMPDEST JUMPDEST PUSH0 DUP6 ADD CALLDATALOAD PUSH8 0xFFFFFFFFFFFFFFFF DUP2 GT ISZERO PUSH2 0xAE5 JUMPI PUSH2 0xAE4 PUSH2 0x73F JUMP JUMPDEST JUMPDEST PUSH2 0xAF1 DUP8 DUP3 DUP9 ADD PUSH2 0xA83 JUMP JUMPDEST SWAP5 POP POP PUSH1 0x20 PUSH2 0xB02 DUP8 DUP3 DUP9 ADD PUSH2 0x762 JUMP JUMPDEST SWAP4 POP POP PUSH1 0x40 PUSH2 0xB13 DUP8 DUP3 DUP9 ADD PUSH2 0x762 JUMP JUMPDEST SWAP3 POP POP PUSH1 0x60 PUSH2 0xB24 DUP8 DUP3 DUP9 ADD PUSH2 0x762 JUMP JUMPDEST SWAP2 POP POP SWAP3 SWAP6 SWAP2 SWAP5 POP SWAP3 POP JUMP JUMPDEST PUSH0 DUP1 PUSH0 PUSH1 0x60 DUP5 DUP7 SUB SLT ISZERO PUSH2 0xB47 JUMPI PUSH2 0xB46 PUSH2 0x73B JUMP JUMPDEST JUMPDEST PUSH0 PUSH2 0xB54 DUP7 DUP3 DUP8 ADD PUSH2 0x762 JUMP JUMPDEST SWAP4 POP POP PUSH1 0x20 PUSH2 0xB65 DUP7 DUP3 DUP8 ADD PUSH2 0x762 JUMP JUMPDEST SWAP3 POP POP PUSH1 0x40 PUSH2 0xB76 DUP7 DUP3 DUP8 ADD PUSH2 0x8DB JUMP JUMPDEST SWAP2 POP POP SWAP3 POP SWAP3 POP SWAP3 JUMP JUMPDEST PUSH32 0x4E487B7100000000000000000000000000000000000000000000000000000000 PUSH0 MSTORE PUSH1 0x22 PUSH1 0x4 MSTORE PUSH1 0x24 PUSH0 REVERT JUMPDEST PUSH0 PUSH1 0x2 DUP3 DIV SWAP1 POP PUSH1 0x1 DUP3 AND DUP1 PUSH2 0xBC4 JUMPI PUSH1 0x7F DUP3 AND SWAP2 POP JUMPDEST PUSH1 0x20 DUP3 LT DUP2 SUB PUSH2 0xBD7 JUMPI PUSH2 0xBD6 PUSH2 0xB80 JUMP JUMPDEST JUMPDEST POP SWAP2 SWAP1 POP JUMP JUMPDEST PUSH32 0x6576656E7420646F6573204E6F74204578697374000000000000000000000000 PUSH0 DUP3 ADD MSTORE POP JUMP JUMPDEST PUSH0 PUSH2 0xC11 PUSH1 0x14 DUP4 PUSH2 0x7EA JUMP JUMPDEST SWAP2 POP PUSH2 0xC1C DUP3 PUSH2 0xBDD JUMP JUMPDEST PUSH1 0x20 DUP3 ADD SWAP1 POP SWAP2 SWAP1 POP JUMP JUMPDEST PUSH0 PUSH1 0x20 DUP3 ADD SWAP1 POP DUP2 DUP2 SUB PUSH0 DUP4 ADD MSTORE PUSH2 0xC3E DUP2 PUSH2 0xC05 JUMP JUMPDEST SWAP1 POP SWAP2 SWAP1 POP JUMP JUMPDEST PUSH32 0x6576656E7420616C7265616479206F6363757265640000000000000000000000 PUSH0 DUP3 ADD MSTORE POP JUMP JUMPDEST PUSH0 PUSH2 0xC79 PUSH1 0x15 DUP4 PUSH2 0x7EA JUMP JUMPDEST SWAP2 POP PUSH2 0xC84 DUP3 PUSH2 0xC45 JUMP JUMPDEST PUSH1 0x20 DUP3 ADD SWAP1 POP SWAP2 SWAP1 POP JUMP JUMPDEST PUSH0 PUSH1 0x20 DUP3 ADD SWAP1 POP DUP2 DUP2 SUB PUSH0 DUP4 ADD MSTORE PUSH2 0xCA6 DUP2 PUSH2 0xC6D JUMP JUMPDEST SWAP1 POP SWAP2 SWAP1 POP JUMP JUMPDEST PUSH32 0x4E487B7100000000000000000000000000000000000000000000000000000000 PUSH0 MSTORE PUSH1 0x11 PUSH1 0x4 MSTORE PUSH1 0x24 PUSH0 REVERT JUMPDEST PUSH0 PUSH2 0xCE4 DUP3 PUSH2 0x743 JUMP JUMPDEST SWAP2 POP PUSH2 0xCEF DUP4 PUSH2 0x743 JUMP JUMPDEST SWAP3 POP DUP3 DUP3 MUL PUSH2 0xCFD DUP2 PUSH2 0x743 JUMP JUMPDEST SWAP2 POP DUP3 DUP3 DIV DUP5 EQ DUP4 ISZERO OR PUSH2 0xD14 JUMPI PUSH2 0xD13 PUSH2 0xCAD JUMP JUMPDEST JUMPDEST POP SWAP3 SWAP2 POP POP JUMP JUMPDEST PUSH32 0x4574686572206973206E6F7420656E6F75676800000000000000000000000000 PUSH0 DUP3 ADD MSTORE POP JUMP JUMPDEST PUSH0 PUSH2 0xD4F PUSH1 0x13 DUP4 PUSH2 0x7EA JUMP JUMPDEST SWAP2 POP PUSH2 0xD5A DUP3 PUSH2 0xD1B JUMP JUMPDEST PUSH1 0x20 DUP3 ADD SWAP1 POP SWAP2 SWAP1 POP JUMP JUMPDEST PUSH0 PUSH1 0x20 DUP3 ADD SWAP1 POP DUP2 DUP2 SUB PUSH0 DUP4 ADD MSTORE PUSH2 0xD7C DUP2 PUSH2 0xD43 JUMP JUMPDEST SWAP1 POP SWAP2 SWAP1 POP JUMP JUMPDEST PUSH0 PUSH2 0xD8D DUP3 PUSH2 0x743 JUMP JUMPDEST SWAP2 POP PUSH2 0xD98 DUP4 PUSH2 0x743 JUMP JUMPDEST SWAP3 POP DUP3 DUP3 SUB SWAP1 POP DUP2 DUP2 GT ISZERO PUSH2 0xDB0 JUMPI PUSH2 0xDAF PUSH2 0xCAD JUMP JUMPDEST JUMPDEST SWAP3 SWAP2 POP POP JUMP JUMPDEST PUSH0 PUSH2 0xDC0 DUP3 PUSH2 0x743 JUMP JUMPDEST SWAP2 POP PUSH2 0xDCB DUP4 PUSH2 0x743 JUMP JUMPDEST SWAP3 POP DUP3 DUP3 ADD SWAP1 POP DUP1 DUP3 GT ISZERO PUSH2 0xDE3 JUMPI PUSH2 0xDE2 PUSH2 0xCAD JUMP JUMPDEST JUMPDEST SWAP3 SWAP2 POP POP JUMP JUMPDEST PUSH32 0x637265617465206576656E7420666F7220667574757265000000000000000000 PUSH0 DUP3 ADD MSTORE POP JUMP JUMPDEST PUSH0 PUSH2 0xE1D PUSH1 0x17 DUP4 PUSH2 0x7EA JUMP JUMPDEST SWAP2 POP PUSH2 0xE28 DUP3 PUSH2 0xDE9 JUMP JUMPDEST PUSH1 0x20 DUP3 ADD SWAP1 POP SWAP2 SWAP1 POP JUMP JUMPDEST PUSH0 PUSH1 0x20 DUP3 ADD SWAP1 POP DUP2 DUP2 SUB PUSH0 DUP4 ADD MSTORE PUSH2 0xE4A DUP2 PUSH2 0xE11 JUMP JUMPDEST SWAP1 POP SWAP2 SWAP1 POP JUMP JUMPDEST PUSH32 0x637265617465206576656E7420666F72206D6F7265207468616E20322070656F PUSH0 DUP3 ADD MSTORE PUSH32 0x706C657300000000000000000000000000000000000000000000000000000000 PUSH1 0x20 DUP3 ADD MSTORE POP JUMP JUMPDEST PUSH0 PUSH2 0xEAB PUSH1 0x24 DUP4 PUSH2 0x7EA JUMP JUMPDEST SWAP2 POP PUSH2 0xEB6 DUP3 PUSH2 0xE51 JUMP JUMPDEST PUSH1 0x40 DUP3 ADD SWAP1 POP SWAP2 SWAP1 POP JUMP JUMPDEST PUSH0 PUSH1 0x20 DUP3 ADD SWAP1 POP DUP2 DUP2 SUB PUSH0 DUP4 ADD MSTORE PUSH2 0xED8 DUP2 PUSH2 0xE9F JUMP JUMPDEST SWAP1 POP SWAP2 SWAP1 POP JUMP JUMPDEST PUSH0 DUP2 SWAP1 POP DUP2 PUSH0 MSTORE PUSH1 0x20 PUSH0 KECCAK256 SWAP1 POP SWAP2 SWAP1 POP JUMP JUMPDEST PUSH0 PUSH1 0x20 PUSH1 0x1F DUP4 ADD DIV SWAP1 POP SWAP2 SWAP1 POP JUMP JUMPDEST PUSH0 DUP3 DUP3 SHL SWAP1 POP SWAP3 SWAP2 POP POP JUMP JUMPDEST PUSH0 PUSH1 0x8 DUP4 MUL PUSH2 0xF3B PUSH32 0xFFFFFFFFFFFFFFFFFFFFFFFFFFFFFFFFFFFFFFFFFFFFFFFFFFFFFFFFFFFFFFFF DUP3 PUSH2 0xF00 JUMP JUMPDEST PUSH2 0xF45 DUP7 DUP4 PUSH2 0xF00 JUMP JUMPDEST SWAP6 POP DUP1 NOT DUP5 AND SWAP4 POP DUP1 DUP7 AND DUP5 OR SWAP3 POP POP POP SWAP4 SWAP3 POP POP POP JUMP JUMPDEST PUSH0 DUP2 SWAP1 POP SWAP2 SWAP1 POP JUMP JUMPDEST PUSH0 PUSH2 0xF80 PUSH2 0xF7B PUSH2 0xF76 DUP5 PUSH2 0x743 JUMP JUMPDEST PUSH2 0xF5D JUMP JUMPDEST PUSH2 0x743 JUMP JUMPDEST SWAP1 POP SWAP2 SWAP1 POP JUMP JUMPDEST PUSH0 DUP2 SWAP1 POP SWAP2 SWAP1 POP JUMP JUMPDEST PUSH2 0xF99 DUP4 PUSH2 0xF66 JUMP JUMPDEST PUSH2 0xFAD PUSH2 0xFA5 DUP3 PUSH2 0xF87 JUMP JUMPDEST DUP5 DUP5 SLOAD PUSH2 0xF0C JUMP JUMPDEST DUP3 SSTORE POP POP POP POP JUMP JUMPDEST PUSH0 SWAP1 JUMP JUMPDEST PUSH2 0xFC1 PUSH2 0xFB5 JUMP JUMPDEST PUSH2 0xFCC DUP2 DUP5 DUP5 PUSH2 0xF90 JUMP JUMPDEST POP POP POP JUMP JUMPDEST JUMPDEST DUP2 DUP2 LT ISZERO PUSH2 0xFEF JUMPI PUSH2 0xFE4 PUSH0 DUP3 PUSH2 0xFB9 JUMP JUMPDEST PUSH1 0x1 DUP2 ADD SWAP1 POP PUSH2 0xFD2 JUMP JUMPDEST POP POP JUMP JUMPDEST PUSH1 0x1F DUP3 GT ISZERO PUSH2 0x1034 JUMPI PUSH2 0x1005 DUP2 PUSH2 0xEDF JUMP JUMPDEST PUSH2 0x100E DUP5 PUSH2 0xEF1 JUMP JUMPDEST DUP2 ADD PUSH1 0x20 DUP6 LT ISZERO PUSH2 0x101D JUMPI DUP2 SWAP1 POP JUMPDEST PUSH2 0x1031 PUSH2 0x1029 DUP6 PUSH2 0xEF1 JUMP JUMPDEST DUP4 ADD DUP3 PUSH2 0xFD1 JUMP JUMPDEST POP POP JUMPDEST POP POP POP JUMP JUMPDEST PUSH0 DUP3 DUP3 SHR SWAP1 POP SWAP3 SWAP2 POP POP JUMP JUMPDEST PUSH0 PUSH2 0x1054 PUSH0 NOT DUP5 PUSH1 0x8 MUL PUSH2 0x1039 JUMP JUMPDEST NOT DUP1 DUP4 AND SWAP2 POP POP SWAP3 SWAP2 POP POP JUMP JUMPDEST PUSH0 PUSH2 0x106C DUP4 DUP4 PUSH2 0x1045 JUMP JUMPDEST SWAP2 POP DUP3 PUSH1 0x2 MUL DUP3 OR SWAP1 POP SWAP3 SWAP2 POP POP JUMP JUMPDEST PUSH2 0x1085 DUP3 PUSH2 0x7E0 JUMP JUMPDEST PUSH8 0xFFFFFFFFFFFFFFFF DUP2 GT ISZERO PUSH2 0x109E JUMPI PUSH2 0x109D PUSH2 0x98C JUMP JUMPDEST JUMPDEST PUSH2 0x10A8 DUP3 SLOAD PUSH2 0xBAD JUMP JUMPDEST PUSH2 0x10B3 DUP3 DUP3 DUP6 PUSH2 0xFF3 JUMP JUMPDEST PUSH0 PUSH1 0x20 SWAP1 POP PUSH1 0x1F DUP4 GT PUSH1 0x1 DUP2 EQ PUSH2 0x10E4 JUMPI PUSH0 DUP5 ISZERO PUSH2 0x10D2 JUMPI DUP3 DUP8 ADD MLOAD SWAP1 POP JUMPDEST PUSH2 0x10DC DUP6 DUP3 PUSH2 0x1061 JUMP JUMPDEST DUP7 SSTORE POP PUSH2 0x1143 JUMP JUMPDEST PUSH1 0x1F NOT DUP5 AND PUSH2 0x10F2 DUP7 PUSH2 0xEDF JUMP JUMPDEST PUSH0 JUMPDEST DUP3 DUP2 LT ISZERO PUSH2 0x1119 JUMPI DUP5 DUP10 ADD MLOAD DUP3 SSTORE PUSH1 0x1 DUP3 ADD SWAP2 POP PUSH1 0x20 DUP6 ADD SWAP5 POP PUSH1 0x20 DUP2 ADD SWAP1 POP PUSH2 0x10F4 JUMP JUMPDEST DUP7 DUP4 LT ISZERO PUSH2 0x1136 JUMPI DUP5 DUP10 ADD MLOAD PUSH2 0x1132 PUSH1 0x1F DUP10 AND DUP3 PUSH2 0x1045 JUMP JUMPDEST DUP4 SSTORE POP JUMPDEST PUSH1 0x1 PUSH1 0x2 DUP9 MUL ADD DUP9 SSTORE POP POP POP JUMPDEST POP POP POP POP POP POP JUMP JUMPDEST PUSH0 PUSH2 0x1155 DUP3 PUSH2 0x743 JUMP JUMPDEST SWAP2 POP PUSH32 0xFFFFFFFFFFFFFFFFFFFFFFFFFFFFFFFFFFFFFFFFFFFFFFFFFFFFFFFFFFFFFFFF DUP3 SUB PUSH2 0x1187 JUMPI PUSH2 0x1186 PUSH2 0xCAD JUMP JUMPDEST JUMPDEST PUSH1 0x1 DUP3 ADD SWAP1 POP SWAP2 SWAP1 POP JUMP INVALID LOG2 PUSH5 0x6970667358 0x22 SLT KECCAK256 0xC4 SWAP3 SLT 0x26 SWAP3 0xBB SWAP5 SWAP2 0xBE PUSH1 0xE5 LOG0 AND SLOAD PUSH7 0xB1029B8634A47F LOG1 BALANCE RETURNDATACOPY PUSH28 0x78B87A25E90664736F6C634300081A00330000000000000000000000 "
				},
				"gasEstimates": {
					"creation": {
						"codeDepositCost": "910400",
						"executionCost": "946",
						"totalCost": "911346"
					},
					"external": {
						"Events(uint256)": "infinite",
						"Tickets(address,uint256)": "infinite",
						"buyTickets(uint256,uint256)": "infinite",
						"eventCreation(string,uint256,uint256,uint256)": "infinite",
						"transferTicket(uint256,uint256,address)": "infinite"
					}
				},
				"methodIdentifiers": {
					"Events(uint256)": "0bb57dfd",
					"Tickets(address,uint256)": "3856fa43",
					"buyTickets(uint256,uint256)": "8627df46",
					"eventCreation(string,uint256,uint256,uint256)": "bd53316e",
					"transferTicket(uint256,uint256,address)": "f086a09b"
				}
			},
			"storageLayout": {
				"storage": [
					{
						"astId": 19,
						"contract": "EventOrganization/Event_organization.sol:eventOrganization",
						"label": "Events",
						"offset": 0,
						"slot": "0",
						"type": "t_mapping(t_uint256,t_struct(Event)14_storage)"
					},
					{
						"astId": 25,
						"contract": "EventOrganization/Event_organization.sol:eventOrganization",
						"label": "Tickets",
						"offset": 0,
						"slot": "1",
						"type": "t_mapping(t_address,t_mapping(t_uint256,t_uint256))"
					},
					{
						"astId": 27,
						"contract": "EventOrganization/Event_organization.sol:eventOrganization",
						"label": "nextId",
						"offset": 0,
						"slot": "2",
						"type": "t_uint256"
					}
				],
				"types": {
					"t_address": {
						"encoding": "inplace",
						"label": "address",
						"numberOfBytes": "20"
					},
					"t_mapping(t_address,t_mapping(t_uint256,t_uint256))": {
						"encoding": "mapping",
						"key": "t_address",
						"label": "mapping(address => mapping(uint256 => uint256))",
						"numberOfBytes": "32",
						"value": "t_mapping(t_uint256,t_uint256)"
					},
					"t_mapping(t_uint256,t_struct(Event)14_storage)": {
						"encoding": "mapping",
						"key": "t_uint256",
						"label": "mapping(uint256 => struct eventOrganization.Event)",
						"numberOfBytes": "32",
						"value": "t_struct(Event)14_storage"
					},
					"t_mapping(t_uint256,t_uint256)": {
						"encoding": "mapping",
						"key": "t_uint256",
						"label": "mapping(uint256 => uint256)",
						"numberOfBytes": "32",
						"value": "t_uint256"
					},
					"t_string_storage": {
						"encoding": "bytes",
						"label": "string",
						"numberOfBytes": "32"
					},
					"t_struct(Event)14_storage": {
						"encoding": "inplace",
						"label": "struct eventOrganization.Event",
						"members": [
							{
								"astId": 3,
								"contract": "EventOrganization/Event_organization.sol:eventOrganization",
								"label": "organizer",
								"offset": 0,
								"slot": "0",
								"type": "t_address"
							},
							{
								"astId": 5,
								"contract": "EventOrganization/Event_organization.sol:eventOrganization",
								"label": "name",
								"offset": 0,
								"slot": "1",
								"type": "t_string_storage"
							},
							{
								"astId": 7,
								"contract": "EventOrganization/Event_organization.sol:eventOrganization",
								"label": "date",
								"offset": 0,
								"slot": "2",
								"type": "t_uint256"
							},
							{
								"astId": 9,
								"contract": "EventOrganization/Event_organization.sol:eventOrganization",
								"label": "price",
								"offset": 0,
								"slot": "3",
								"type": "t_uint256"
							},
							{
								"astId": 11,
								"contract": "EventOrganization/Event_organization.sol:eventOrganization",
								"label": "totalTickets",
								"offset": 0,
								"slot": "4",
								"type": "t_uint256"
							},
							{
								"astId": 13,
								"contract": "EventOrganization/Event_organization.sol:eventOrganization",
								"label": "remainTickets",
								"offset": 0,
								"slot": "5",
								"type": "t_uint256"
							}
						],
						"numberOfBytes": "192"
					},
					"t_uint256": {
						"encoding": "inplace",
						"label": "uint256",
						"numberOfBytes": "32"
					}
				}
			},
			"userdoc": {
				"kind": "user",
				"methods": {},
				"version": 1
			}
		}
	}
}